{"abi":[{"type":"constructor","inputs":[{"name":"limitOrderProtocol","type":"address","internalType":"address"},{"name":"feeToken","type":"address","internalType":"contract IERC20"},{"name":"accessToken","type":"address","internalType":"contract IERC20"},{"name":"owner","type":"address","internalType":"address"},{"name":"rescueDelaySrc","type":"uint32","internalType":"uint32"},{"name":"rescueDelayDst","type":"uint32","internalType":"uint32"}],"stateMutability":"nonpayable"},{"type":"function","name":"ESCROW_DST_IMPLEMENTATION","inputs":[],"outputs":[{"name":"","type":"address","internalType":"address"}],"stateMutability":"view"},{"type":"function","name":"ESCROW_SRC_IMPLEMENTATION","inputs":[],"outputs":[{"name":"","type":"address","internalType":"address"}],"stateMutability":"view"},{"type":"function","name":"FEE_BANK","inputs":[],"outputs":[{"name":"","type":"address","internalType":"contract IFeeBank"}],"stateMutability":"view"},{"type":"function","name":"addressOfEscrowDst","inputs":[{"name":"immutables","type":"tuple","internalType":"struct IBaseEscrow.Immutables","components":[{"name":"orderHash","type":"bytes32","internalType":"bytes32"},{"name":"hashlock","type":"bytes32","internalType":"bytes32"},{"name":"maker","type":"uint256","internalType":"Address"},{"name":"taker","type":"uint256","internalType":"Address"},{"name":"token","type":"uint256","internalType":"Address"},{"name":"amount","type":"uint256","internalType":"uint256"},{"name":"safetyDeposit","type":"uint256","internalType":"uint256"},{"name":"timelocks","type":"uint256","internalType":"Timelocks"}]}],"outputs":[{"name":"","type":"address","internalType":"address"}],"stateMutability":"view"},{"type":"function","name":"addressOfEscrowSrc","inputs":[{"name":"immutables","type":"tuple","internalType":"struct IBaseEscrow.Immutables","components":[{"name":"orderHash","type":"bytes32","internalType":"bytes32"},{"name":"hashlock","type":"bytes32","internalType":"bytes32"},{"name":"maker","type":"uint256","internalType":"Address"},{"name":"taker","type":"uint256","internalType":"Address"},{"name":"token","type":"uint256","internalType":"Address"},{"name":"amount","type":"uint256","internalType":"uint256"},{"name":"safetyDeposit","type":"uint256","internalType":"uint256"},{"name":"timelocks","type":"uint256","internalType":"Timelocks"}]}],"outputs":[{"name":"","type":"address","internalType":"address"}],"stateMutability":"view"},{"type":"function","name":"availableCredit","inputs":[{"name":"account","type":"address","internalType":"address"}],"outputs":[{"name":"","type":"uint256","internalType":"uint256"}],"stateMutability":"view"},{"type":"function","name":"createDstEscrow","inputs":[{"name":"dstImmutables","type":"tuple","internalType":"struct IBaseEscrow.Immutables","components":[{"name":"orderHash","type":"bytes32","internalType":"bytes32"},{"name":"hashlock","type":"bytes32","internalType":"bytes32"},{"name":"maker","type":"uint256","internalType":"Address"},{"name":"taker","type":"uint256","internalType":"Address"},{"name":"token","type":"uint256","internalType":"Address"},{"name":"amount","type":"uint256","internalType":"uint256"},{"name":"safetyDeposit","type":"uint256","internalType":"uint256"},{"name":"timelocks","type":"uint256","internalType":"Timelocks"}]},{"name":"srcCancellationTimestamp","type":"uint256","internalType":"uint256"}],"outputs":[],"stateMutability":"payable"},{"type":"function","name":"decreaseAvailableCredit","inputs":[{"name":"account","type":"address","internalType":"address"},{"name":"amount","type":"uint256","internalType":"uint256"}],"outputs":[{"name":"allowance","type":"uint256","internalType":"uint256"}],"stateMutability":"nonpayable"},{"type":"function","name":"getMakingAmount","inputs":[{"name":"order","type":"tuple","internalType":"struct IOrderMixin.Order","components":[{"name":"salt","type":"uint256","internalType":"uint256"},{"name":"maker","type":"uint256","internalType":"Address"},{"name":"receiver","type":"uint256","internalType":"Address"},{"name":"makerAsset","type":"uint256","internalType":"Address"},{"name":"takerAsset","type":"uint256","internalType":"Address"},{"name":"makingAmount","type":"uint256","internalType":"uint256"},{"name":"takingAmount","type":"uint256","internalType":"uint256"},{"name":"makerTraits","type":"uint256","internalType":"MakerTraits"}]},{"name":"","type":"bytes","internalType":"bytes"},{"name":"","type":"bytes32","internalType":"bytes32"},{"name":"","type":"address","internalType":"address"},{"name":"takingAmount","type":"uint256","internalType":"uint256"},{"name":"","type":"uint256","internalType":"uint256"},{"name":"extraData","type":"bytes","internalType":"bytes"}],"outputs":[{"name":"","type":"uint256","internalType":"uint256"}],"stateMutability":"view"},{"type":"function","name":"getTakingAmount","inputs":[{"name":"order","type":"tuple","internalType":"struct IOrderMixin.Order","components":[{"name":"salt","type":"uint256","internalType":"uint256"},{"name":"maker","type":"uint256","internalType":"Address"},{"name":"receiver","type":"uint256","internalType":"Address"},{"name":"makerAsset","type":"uint256","internalType":"Address"},{"name":"takerAsset","type":"uint256","internalType":"Address"},{"name":"makingAmount","type":"uint256","internalType":"uint256"},{"name":"takingAmount","type":"uint256","internalType":"uint256"},{"name":"makerTraits","type":"uint256","internalType":"MakerTraits"}]},{"name":"","type":"bytes","internalType":"bytes"},{"name":"","type":"bytes32","internalType":"bytes32"},{"name":"","type":"address","internalType":"address"},{"name":"makingAmount","type":"uint256","internalType":"uint256"},{"name":"","type":"uint256","internalType":"uint256"},{"name":"extraData","type":"bytes","internalType":"bytes"}],"outputs":[{"name":"","type":"uint256","internalType":"uint256"}],"stateMutability":"view"},{"type":"function","name":"increaseAvailableCredit","inputs":[{"name":"account","type":"address","internalType":"address"},{"name":"amount","type":"uint256","internalType":"uint256"}],"outputs":[{"name":"allowance","type":"uint256","internalType":"uint256"}],"stateMutability":"nonpayable"},{"type":"function","name":"lastValidated","inputs":[{"name":"key","type":"bytes32","internalType":"bytes32"}],"outputs":[{"name":"index","type":"uint256","internalType":"uint256"},{"name":"leaf","type":"bytes32","internalType":"bytes32"}],"stateMutability":"view"},{"type":"function","name":"postInteraction","inputs":[{"name":"order","type":"tuple","internalType":"struct IOrderMixin.Order","components":[{"name":"salt","type":"uint256","internalType":"uint256"},{"name":"maker","type":"uint256","internalType":"Address"},{"name":"receiver","type":"uint256","internalType":"Address"},{"name":"makerAsset","type":"uint256","internalType":"Address"},{"name":"takerAsset","type":"uint256","internalType":"Address"},{"name":"makingAmount","type":"uint256","internalType":"uint256"},{"name":"takingAmount","type":"uint256","internalType":"uint256"},{"name":"makerTraits","type":"uint256","internalType":"MakerTraits"}]},{"name":"extension","type":"bytes","internalType":"bytes"},{"name":"orderHash","type":"bytes32","internalType":"bytes32"},{"name":"taker","type":"address","internalType":"address"},{"name":"makingAmount","type":"uint256","internalType":"uint256"},{"name":"takingAmount","type":"uint256","internalType":"uint256"},{"name":"remainingMakingAmount","type":"uint256","internalType":"uint256"},{"name":"extraData","type":"bytes","internalType":"bytes"}],"outputs":[],"stateMutability":"nonpayable"},{"type":"function","name":"preInteraction","inputs":[{"name":"order","type":"tuple","internalType":"struct IOrderMixin.Order","components":[{"name":"salt","type":"uint256","internalType":"uint256"},{"name":"maker","type":"uint256","internalType":"Address"},{"name":"receiver","type":"uint256","internalType":"Address"},{"name":"makerAsset","type":"uint256","internalType":"Address"},{"name":"takerAsset","type":"uint256","internalType":"Address"},{"name":"makingAmount","type":"uint256","internalType":"uint256"},{"name":"takingAmount","type":"uint256","internalType":"uint256"},{"name":"makerTraits","type":"uint256","internalType":"MakerTraits"}]},{"name":"extension","type":"bytes","internalType":"bytes"},{"name":"orderHash","type":"bytes32","internalType":"bytes32"},{"name":"taker","type":"address","internalType":"address"},{"name":"makingAmount","type":"uint256","internalType":"uint256"},{"name":"takingAmount","type":"uint256","internalType":"uint256"},{"name":"remainingMakingAmount","type":"uint256","internalType":"uint256"},{"name":"extraData","type":"bytes","internalType":"bytes"}],"outputs":[],"stateMutability":"nonpayable"},{"type":"function","name":"takerInteraction","inputs":[{"name":"","type":"tuple","internalType":"struct IOrderMixin.Order","components":[{"name":"salt","type":"uint256","internalType":"uint256"},{"name":"maker","type":"uint256","internalType":"Address"},{"name":"receiver","type":"uint256","internalType":"Address"},{"name":"makerAsset","type":"uint256","internalType":"Address"},{"name":"takerAsset","type":"uint256","internalType":"Address"},{"name":"makingAmount","type":"uint256","internalType":"uint256"},{"name":"takingAmount","type":"uint256","internalType":"uint256"},{"name":"makerTraits","type":"uint256","internalType":"MakerTraits"}]},{"name":"extension","type":"bytes","internalType":"bytes"},{"name":"orderHash","type":"bytes32","internalType":"bytes32"},{"name":"","type":"address","internalType":"address"},{"name":"","type":"uint256","internalType":"uint256"},{"name":"","type":"uint256","internalType":"uint256"},{"name":"","type":"uint256","internalType":"uint256"},{"name":"extraData","type":"bytes","internalType":"bytes"}],"outputs":[],"stateMutability":"nonpayable"},{"type":"event","name":"DstEscrowCreated","inputs":[{"name":"escrow","type":"address","indexed":false,"internalType":"address"},{"name":"hashlock","type":"bytes32","indexed":false,"internalType":"bytes32"},{"name":"taker","type":"uint256","indexed":false,"internalType":"Address"}],"anonymous":false},{"type":"event","name":"SrcEscrowCreated","inputs":[{"name":"srcImmutables","type":"tuple","indexed":false,"internalType":"struct IBaseEscrow.Immutables","components":[{"name":"orderHash","type":"bytes32","internalType":"bytes32"},{"name":"hashlock","type":"bytes32","internalType":"bytes32"},{"name":"maker","type":"uint256","internalType":"Address"},{"name":"taker","type":"uint256","internalType":"Address"},{"name":"token","type":"uint256","internalType":"Address"},{"name":"amount","type":"uint256","internalType":"uint256"},{"name":"safetyDeposit","type":"uint256","internalType":"uint256"},{"name":"timelocks","type":"uint256","internalType":"Timelocks"}]},{"name":"dstImmutablesComplement","type":"tuple","indexed":false,"internalType":"struct IEscrowFactory.DstImmutablesComplement","components":[{"name":"maker","type":"uint256","internalType":"Address"},{"name":"amount","type":"uint256","internalType":"uint256"},{"name":"token","type":"uint256","internalType":"Address"},{"name":"safetyDeposit","type":"uint256","internalType":"uint256"},{"name":"chainId","type":"uint256","internalType":"uint256"}]}],"anonymous":false},{"type":"error","name":"AccessDenied","inputs":[]},{"type":"error","name":"FailedDeployment","inputs":[]},{"type":"error","name":"InsufficientBalance","inputs":[{"name":"balance","type":"uint256","internalType":"uint256"},{"name":"needed","type":"uint256","internalType":"uint256"}]},{"type":"error","name":"InsufficientEscrowBalance","inputs":[]},{"type":"error","name":"InvalidCreationTime","inputs":[]},{"type":"error","name":"InvalidPartialFill","inputs":[]},{"type":"error","name":"InvalidProof","inputs":[]},{"type":"error","name":"InvalidSecretsAmount","inputs":[]},{"type":"error","name":"NotEnoughCredit","inputs":[]},{"type":"error","name":"OnlyFeeBankAccess","inputs":[]},{"type":"error","name":"OnlyLimitOrderProtocol","inputs":[]},{"type":"error","name":"ResolverCanNotFillOrder","inputs":[]},{"type":"error","name":"SafeTransferFromFailed","inputs":[]}],"bytecode":{"object":"0x61018034620002e0576001600160401b0390601f62003a7138819003918201601f19168301919084831184841017620002b8578160c09285926040958652833981010312620002e0576200005382620002e4565b916200006260208201620002e4565b9362000070838301620002e4565b916200007f60608201620002e4565b946200009c60a06200009460808501620002f9565b9301620002f9565b9681608052855190610d1a80830183811087821117620002b857606092849262002d5784393082526001600160a01b039081166020830152998a16898201520301905ff08015620002d657861660a0528360c05260e052835190610b4f8083019083821085831117620002b85783926200013892879262002208863963ffffffff90911681526001600160a01b03909116602082015260400190565b03905ff0948515620002cc5784610100961686528351926108aa918285019385851090851117620002b857849362000190936200195e863963ffffffff90911681526001600160a01b03909116602082015260400190565b03905ff0918215620002ae57806101209316835262000236620001ee82865116763d602d80600a3d3981f3363d3d373d3d3d363d73000000906e5af43d82803e903d91602b57fd5bf36020528060115260881c175f52603760092090565b91610140928352845116763d602d80600a3d3981f3363d3d373d3d3d363d73000000906e5af43d82803e903d91602b57fd5bf36020528060115260881c175f52603760092090565b91610160928352519261165294856200030c8639608051858181610812015261103f015260a05185818161071c01528181610f540152610fae015260c05185610e5c015260e051856104dc0152518481816107900152610b0d0152518381816101dc01526104920152518260ea015251816104570152f35b50513d5f823e3d90fd5b634e487b7160e01b5f52604160045260245ffd5b83513d5f823e3d90fd5b85513d5f823e3d90fd5b5f80fd5b51906001600160a01b0382168203620002e057565b519063ffffffff82168203620002e05756fe6080806040526004361015610012575f80fd5b5f905f3560e01c9081630986bdd51461102c575080631d9671c314610fdd5780632ce26aeb14610f995780633ee5ef1f14610f30578063462ebde2146107f75780635886216f146107bf5780637040f1731461077a57806385eda2de146106f7578063acf4ce5c146106c3578063adf38ba1146104c1578063ba5511771461047c578063be58e91c1461042f578063d7ff8a8014610373578063dea024e4146101245763fb6bd47e146100c3575f80fd5b3461012157610100908160031936011261012157602061010f8360405181600482372030907f000000000000000000000000000000000000000000000000000000000000000090611531565b6040516001600160a01b039091168152f35b80fd5b503660031901610120811261036f5761010080911261036f576084359060c435906001600160a01b0380841690811590848261035d575b340361034b576040519361016e85611211565b600435855260243594856020820152604435604082015260643597886060830152608082015260a081019660a435885260c08201524260e01b60018060e01b0360e43516178060e08301526101d4610104359163ffffffff8160c01c169060e01c6111db565b1161033957207f000000000000000000000000000000000000000000000000000000000000000034471061031b5780763d602d80600a3d3981f3363d3d373d3d3d363d7300000062ffffff6e5af43d82803e903d91602b57fd5bf39360881c16175f5260781b176020526037600934f590811694851561030957879215610291575b827fc30e111dcc74fddc2c3a4d98ffb97adec4485c0a687946bf5b22c2a99c7ff96d6060888a8960405192835260208301526040820152a180f35b6020929160649196959651604051916323b872dd60e01b83523360048401526024830152604482015282855af190816102e7575b50156102d557905f848180610256565b60405163f405907160e01b8152600490fd5b90503d1561030157506001845114601f3d11165b5f6102c5565b3b15156102fb565b60405163b06ebf3d60e01b8152600490fd5b60405163cf47918160e01b8152476004820152346024820152604490fd5b604051637a42074b60e11b8152600490fd5b6040516334f5151d60e01b8152600490fd5b61036a9060a435906111db565b61015b565b5080fd5b5034610121576103936103853661114d565b95509350509593505061126e565b629896809260c08301359184019081851161041b5760a0916103b4916111c8565b920135838102938185041490151715610407576103d2838383611317565b9383156103f35760206103eb86868686091515906111db565b604051908152f35b634e487b7160e01b81526012600452602490fd5b634e487b7160e01b84526011600452602484fd5b634e487b7160e01b86526011600452602486fd5b503461012157610100908160031936011261012157602061010f8360405181600482372030907f000000000000000000000000000000000000000000000000000000000000000090611531565b50346101215780600319360112610121576040517f00000000000000000000000000000000000000000000000000000000000000006001600160a01b03168152602090f35b5034610121576104d0366110cb565b509750939594935050507f00000000000000000000000000000000000000000000000000000000000000006001600160a01b0316330390506106b157610515916114e9565b60408051602080820195865292909301609f190135601081901b61ffff1916918401919091526001600160f01b03939192908416919061056281605e81015b03601f19810183528261122e565b519020908435601e19863603018112156106ad5767ffffffffffffffff9490860180358681116106a9576005918160051b3603878201136106a5576040878a0135990135976040518881019167ffffffffffffffff60c01b8c60c01b1683528a60288301526028825260608201908282109082111761069157604052519020928a9291905b8284106106565750505050160361064457600184018094116106305760019291839160405195610616876111f5565b865281860193845286525260408420925183555191015580f35b634e487b7160e01b85526011600452602485fd5b6040516309bde33960e01b8152600490fd5b909192938885831b84010135908181105f14610681578c528852600160408c205b94019291906105e7565b908c528852600160408c20610677565b634e487b7160e01b5f52604160045260245ffd5b8980fd5b8880fd5b8680fd5b604051634ca8886760e01b8152600490fd5b5034610121576020366003190112610121576040809160043581526001602052206001815491015482519182526020820152f35b5034610121576040366003190112610121576107116110b5565b6001600160a01b03917f000000000000000000000000000000000000000000000000000000000000000083163303610768576020926040921681528083522061075d60243582546111e8565b809155604051908152f35b60405163a454419960e01b8152600490fd5b50346101215780600319360112610121576040517f00000000000000000000000000000000000000000000000000000000000000006001600160a01b03168152602090f35b5034610121576020366003190112610121576020906040906001600160a01b036107e76110b5565b1681528083522054604051908152f35b5034610d8057610806366110cb565b939795969395909492937f00000000000000000000000000000000000000000000000000000000000000006001600160a01b03163303610f1e5786609f19810111610d8457609f198701908660a0198901838111610d8457610885600160f81b8061087684609f198f018e61155a565b35161491609f198c018b61155a565b3560fb1c90805f91610ec5575b85600411610d8057833560e01c6003198701600c850211610d80576108c08a85600c8102600489018561157a565b15610db5575b5050506014600319600c830286030111610c05575b50505050848601609f1901905060e0890135600160fe1b1615610bfd57358060f01c60028110610beb5760408051602081018a815260109490941b61ffff19169181019190915261096d929061093481605e8101610554565b5190208b52600160205260408b20906020604051610951816111f5565b6001845494858352015491829101529360a08c0135908b611452565b15610bd9575b6040519561098087611211565b865260208601526020870135604086015260018060a01b03166060850152606086013560808501528460a0850152603f19838301013560801c60c08501524260e01b60018060e01b03601f198585010135161760e0850152604086013560018060a01b038116155f14610bd357506020860135905b604051938460a081011067ffffffffffffffff60a087011117610691577f0e534c62f0afd2fa0f0fa71198e8aa2d549f24daf2bb47de0d5486c7ce9288ca936101a09360a0870160405286526020860192835260408601605f198383010135815260608701916fffffffffffffffffffffffffffffffff603f1985830101351683526080880193607f1991010135835260405193885185526020890151602086015260408901516040860152606089015160608601526080890151608086015260a089015160a086015260c089015160c086015260e089015160e086015261010097518886015251610120850152516101408401525161016083015251610180820152a181206e5af43d82803e903d91602b57fd5bf37f0000000000000000000000000000000000000000000000000000000000000000763d602d80600a3d3981f3363d3d373d3d3d363d7300000062ffffff8260881c16175f5260781b17602052603760095ff5926001600160a01b0384161561030957849160c0853191015111938415610b8a575b5050505061034b5780f35b6370a0823160e01b83526004529192506020916024908290606001356001600160a01b03165afa8251901560203d1017610bc857105f828180610b7f565b6040513d84823e3d90fd5b906109f5565b604051633aace85d60e21b8152600490fd5b6040516310d629d360e01b8152600490fd5b905035610973565b6bffffffffffffffffffffffff19600c82028381016004013582811696929160149084036003190110610d98575b5050600c82028103600319810160041990910111610d8457600c8202810360041901601411610d80578460601c3b15610d80578d928c918e60405198899788976323175ef160e11b8952803560048a0152602081013560248a0152604081013560448a0152606081013560648a0152608081013560848a015260a081013560a48a015260c081013560c48a015260e0013560e489015261010488016101e090526101e4880190610ce2926115fc565b6101248701949094526001600160a01b038b1661014487015261016486015261018485018b90526101a48501899052848303600319016101c4860152610d3793600c02908190036018190191016018016115fc565b039160601c91815a5f948591f18015610d7557610d58575b808080806108db565b90985067ffffffffffffffff8111610691576040525f975f610d4f565b6040513d5f823e3d90fd5b5f80fd5b634e487b7160e01b5f52601160045260245ffd5b600c8402830360140360040160031b82901b161694505f80610c33565b42108015610e32575b610e2057610dce575b80806108c6565b8015610dc7576001600160a01b0388165f90815260208190526040902054818110610e0e5760018060a01b0389165f525f6020520360405f20555f610dc7565b6040516353fe9bc960e11b8152600490fd5b6040516379288a5360e11b8152600490fd5b506040516370a0823160e01b81526001600160a01b038a81166004830152602090829060249082907f0000000000000000000000000000000000000000000000000000000000000000165afa908115610d75575f91610e93575b5015610dbe565b90506020813d602011610ebd575b81610eae6020938361122e565b81010312610d8057515f610e8c565b3d9150610ea1565b9450509050609f198901600411610d8057873560e01c66038d7ea4c68000908082810204821481151715610d8457610f088d8f9360a0610f0d95013593026111c8565b611250565b90600489019160a3198b0194610892565b60405163692d508360e11b8152600490fd5b34610d80576040366003190112610d8057610f496110b5565b6001600160a01b03907f00000000000000000000000000000000000000000000000000000000000000008216330361076857165f525f602052602060405f20602435815401809155604051908152f35b34610d80575f366003190112610d80576040517f00000000000000000000000000000000000000000000000000000000000000006001600160a01b03168152602090f35b34610d8057610fee6103853661114d565b90629896809182840293808504841490151715610d84578201809211610d845760209260a06110246103eb9460c08501356111c8565b920135611317565b34610d805761103a366110cb565b5050507f00000000000000000000000000000000000000000000000000000000000000006001600160a01b0316330396506110789550505050505057005b63692d508360e11b8152600490fd5b9181601f84011215610d805782359167ffffffffffffffff8311610d805760208381860195010111610d8057565b600435906001600160a01b0382168203610d8057565b60031981016101e08112610d805761010013610d805760049167ffffffffffffffff61010435818111610d80578361110591600401611087565b909390926101243592610144356001600160a01b0381168103610d805792610164359261018435926101a435926101c435918211610d805761114991600401611087565b9091565b9060031982016101c08112610d805761010013610d805760049167ffffffffffffffff9061010435828111610d80578161118991600401611087565b909390926101243592610144356001600160a01b0381168103610d805792610164359261018435926101a435918211610d805761114991600401611087565b81810292918115918404141715610d8457565b91908201809211610d8457565b91908203918211610d8457565b6040810190811067ffffffffffffffff82111761069157604052565b610100810190811067ffffffffffffffff82111761069157604052565b90601f8019910116810190811067ffffffffffffffff82111761069157604052565b811561125a570490565b634e487b7160e01b5f52601260045260245ffd5b9080600311610d8057813560e81c81600711610d8057600383013560e01c908015801561130f575b156112f85750505f915b81600b11610d8057600781013560e01c82600e11610d805782601111610d80576112e69260101901916011810191600b600e83013560e81c92013560e81c8101906113b3565b818111156112f2570390565b50505f90565b620f424091611308914802611250565b04916112a0565b508115611296565b90915f1983830992808302928380861095039480860395146113a3578483111561138b5790829109815f038216809204600280826003021880830282030280830282030280830282030280830282030280830282030280920290030293600183805f03040190848311900302920304170290565b82634e487b715f52156003026011186020526024601cfd5b5050906113b09250611250565b90565b91939290914281106113c6575050505090565b82939594924210156114495790855b6113ec57506113b093945082039142900302611250565b90600390868211610d8057823560e81c90600592888411610d805784013560f01c81019485421115611429575050929101946004190194856113d5565b9250936113b0969750809550849193500393429003029142030201611250565b505f9450505050565b9291906114688461146383856111e8565b6111db565b5f199190828101908111610d845783610f0886611484936111c8565b94810361149e575050505060028101809111610d84571490565b8083036114b9575b5050505060018101809111610d84571490565b6114c390836111e8565b908101908111610d84576114da92610f08916111c8565b81146112f2575f8080806114a6565b919091602083106115295780359063ffffffff8260c01c169160e01c93601f1901841161151a578101602001920390565b6309605a0160e41b5f5260045ffd5b505f91508190565b91600b92604051926040840152602083015281520160ff8153605590206001600160a01b031690565b90821015611566570190565b634e487b7160e01b5f52603260045260245ffd5b9369ffffffffffffffffffff1692915f915b83831061159d575050505050505f90565b600a95828711610d8057600c96838811610d805782013560f01c0195813560b01c86036115d05750505050505042101590565b95929394954284116115f1579295949360010192600b19909201910161158c565b505050505050505f90565b908060209392818452848401375f828201840152601f01601f191601019056fea2646970667358221220e01ed51a64b8660160ad58bfcc7e104a06e7770e6f1a97aff6b8ebb8b7dcbf4364736f6c634300081700336101003461010e57601f6108aa38819003918201601f19168301916001600160401b0383118484101761011257808492604094855283398101031261010e5780519063ffffffff821680920361010e5760200151906001600160a01b038216820361010e573360c05260a0526080526e5af43d82803e903d91602b57fd5bf360205230601152763d602d80600a3d3981f3363d3d373d3d3d363d730000003060881c175f52603760092060e0526040516107839081610127823960805181610419015260a0518181816085015261027f015260c051818181610113015281816102490152818161035b015261056c015260e05181818160e90152818161021f0152818161032401526105420152f35b5f80fd5b634e487b7160e01b5f52604160045260245ffdfe6080604090808252600480361015610015575f80fd5b60e05f35811c9283630af97558146103f057508263233057031461038a5782632dd310001461034757826334862b6a1461030d5782634649088b146101c35750816390d3252f146100ac575063f56cd69c1461006f575f80fd5b346100a8575f3660031901126100a857602090517f00000000000000000000000000000000000000000000000000000000000000008152f35b5f80fd5b82346100a857610100806003193601126100a8576001600160a01b0391606435831691338390036101b3576055600b8592845181898237208451907f00000000000000000000000000000000000000000000000000000000000000008683015260208201527f000000000000000000000000000000000000000000000000000000000000000081520160ff8153201630036101a45761014c60e43561063f565b42106101955761016360a43583608435861661066d565b61016f60c435336106ef565b7f6e3be9294e58d10b9c8053cfd5e09871b67e442fe394d6b0870d336b9df984a95f80a1005b516337bf561360e11b81528390fd5b51635134a42560e11b81528390fd5b81516348f5c3ed60e01b81528590fd5b8390346100a8576101403660031901126100a8578235926001600160a01b03808516929091908386036100a85760243592610100806043193601126100a8578160a4351633036102fd57600b60559188518160448237208851907f00000000000000000000000000000000000000000000000000000000000000008a83015260208201527f000000000000000000000000000000000000000000000000000000000000000081520160ff8153201630036102ee5761012435901c7f00000000000000000000000000000000000000000000000000000000000000000142106102e057506102d3817fc4474c2790e13695f6d2b6f1d8e164290b55370f87a542fd7711abe0a1bf40ac95339061066d565b82519182526020820152a1005b83516337bf561360e11b8152fd5b508351635134a42560e11b8152fd5b86516348f5c3ed60e01b81528490fd5b83346100a8575f3660031901126100a857602090517f00000000000000000000000000000000000000000000000000000000000000008152f35b83346100a8575f3660031901126100a857517f00000000000000000000000000000000000000000000000000000000000000006001600160a01b03168152602090f35b8390346100a85761039a366104bd565b92909160608401356001600160a01b031633036101b35763ffffffff8185013580921c9160801c1681018091116103dd574210610195576103db8383610516565b005b601185634e487b7160e01b5f525260245ffd5b84346100a8576103ff366104bd565b6370a0823160e01b845233868501529390926020816024817f00000000000000000000000000000000000000000000000000000000000000006001600160a01b03165afa9081156104b3575f91610481575b50156101b35763ffffffff8185013580921c9160a01c1681018091116103dd574210610195576103db8383610516565b90506020813d6020116104ab575b8161049c602093836104e0565b810103126100a8575186610451565b3d915061048f565b83513d5f823e3d90fd5b906101206003198301126100a8576101006004359260231901126100a857602490565b90601f8019910116810190811067ffffffffffffffff82111761050257604052565b634e487b7160e01b5f52604160045260245ffd5b9061052460e082013561063f565b42101561062d576040906055600b83516101009081858237208451907f00000000000000000000000000000000000000000000000000000000000000008683015260208201527f000000000000000000000000000000000000000000000000000000000000000081520160ff8153206001600160a01b03908116300361061c57835f5260205f2060208301350361060b579161060460c0836105fc60209660a07fe346f5c97a360db5188bfa5d3ec5f0583abde420c6ba4d08b6cfe61addc1710599970135908087850135169060808501351661066d565b0135336106ef565b51908152a1565b825163abab6bd760e01b8152600490fd5b8251635134a42560e11b8152600490fd5b6040516337bf561360e11b8152600490fd5b63ffffffff8160e01c9160c01c1681018091116106595790565b634e487b7160e01b5f52601160045260245ffd5b6001600160a01b03169190826106895761068792506106ef565b565b60445f916020936040519163a9059cbb60e01b83526004830152602482015282855af190816106cd575b50156106bb57565b60405163fb7f507960e01b8152600490fd5b90503d156106e7575060015f5114601f3d11165b5f6106b3565b3b15156106e1565b5f80809381935af13d15610748573d67ffffffffffffffff81116105025760405190610725601f8201601f1916602001836104e0565b81525f60203d92013e5b1561073657565b604051638a0332d560e01b8152600490fd5b61072f56fea2646970667358221220ed8d150617507daff485cbcb52a29f74bc4f47239eecda244ce42b278b15e57c64736f6c634300081700336101003461011557601f610b4f38819003918201601f19168301916001600160401b038311848410176101195780849260409485528339810103126101155780519063ffffffff82168092036101155760200151906001600160a01b0382168203610115573360c05260a0526080526e5af43d82803e903d91602b57fd5bf360205230601152763d602d80600a3d3981f3363d3d373d3d3d363d730000003060881c175f52603760092060e052604051610a21908161012e823960805181818160f801526105bf015260a051818181609b01526103b8015260c05181818161049a015281816107e40152818161087101526108eb015260e051818181610463015281816107b90152818161084601526108c00152f35b5f80fd5b634e487b7160e01b5f52604160045260245ffdfe6080604090808252600480361015610015575f80fd5b60e05f35811c9283630af97558146105875750826323305703146104c95782632dd310001461048657826334862b6a1461044c5782634649088b146103635782636c10c0c81461026157826390d3252f1461020d578263daff233e146100c257505063f56cd69c14610085575f80fd5b346100be575f3660031901126100be57602090517f00000000000000000000000000000000000000000000000000000000000000008152f35b5f80fd5b83346100be576101003660031901126100be5780516370a0823160e01b815233848201526001600160a01b0392906020816024817f000000000000000000000000000000000000000000000000000000000000000088165afa908115610203575f916101d1575b50156101c15763ffffffff60e43580921c9160601c1681018091116101ae57421061019f5761016d8261015a610831565b60a4359080604435169060843516610926565b61017960c4353361098d565b7f6e3be9294e58d10b9c8053cfd5e09871b67e442fe394d6b0870d336b9df984a95f80a1005b516337bf561360e11b81529050fd5b601184634e487b7160e01b5f525260245ffd5b81516348f5c3ed60e01b81528490fd5b90506020813d6020116101fb575b816101ec60209383610729565b810103126100be575185610129565b3d91506101df565b83513d5f823e3d90fd5b5082346100be576101003660031901126100be576001600160a01b0390606435821633036102525761024060e43561075f565b421061019f5761016d8261015a610831565b516348f5c3ed60e01b81529050fd5b5082346100be576101403660031901126100be578135916001600160a01b03906024359082821682036100be576101003660431901126100be578260a43516330361035557610124356102b38161078d565b4210610346576102c29061075f565b421015610338576102d16107a4565b845f5260205f206064350361032a577fe346f5c97a360db5188bfa5d3ec5f0583abde420c6ba4d08b6cfe61addc171056020868661031660e4358760c4358a16610926565b610323610104353361098d565b51908152a1005b835163abab6bd760e01b8152fd5b83516337bf561360e11b8152fd5b5083516337bf561360e11b8152fd5b83516348f5c3ed60e01b8152fd5b8390346100be576101403660031901126100be576001600160a01b03833581811692908390036100be57602435916101003660431901126100be5760a43516330361043c576103b06107a4565b61012435901c7f000000000000000000000000000000000000000000000000000000000000000001421061042d577fc4474c2790e13695f6d2b6f1d8e164290b55370f87a542fd7711abe0a1bf40ac93508161041d57610410813361098d565b82519182526020820152a1005b610428813384610926565b610410565b5050516337bf561360e11b8152fd5b505050516348f5c3ed60e01b8152fd5b83346100be575f3660031901126100be57602090517f00000000000000000000000000000000000000000000000000000000000000008152f35b83346100be575f3660031901126100be57517f00000000000000000000000000000000000000000000000000000000000000006001600160a01b03168152602090f35b8390346100be576104d936610706565b909390916001600160a01b039190606084013583163303610578578301356105008161078d565b42106103465761050f9061075f565b4210156103385761051f836108ac565b845f5260205f2060208401350361032a577fe346f5c97a360db5188bfa5d3ec5f0583abde420c6ba4d08b6cfe61addc171056020868661032360c08861057060a08201353360808401358c16610926565b01353361098d565b5083516348f5c3ed60e01b8152fd5b8285346100be5761059736610706565b6370a0823160e01b855233858501529460209491936001600160a01b039290919086816024817f000000000000000000000000000000000000000000000000000000000000000088165afa9081156106fc575f916106cf575b50156106c0578087013580911c63ffffffff82881c1681018091116106ad57421061069e5761061e9061075f565b4210156106905761062e866108ac565b835f52845f208587013503610682575060c0856105706103239360a07fe346f5c97a360db5188bfa5d3ec5f0583abde420c6ba4d08b6cfe61addc17105990135908060608501351690608085013516610926565b825163abab6bd760e01b8152fd5b82516337bf561360e11b8152fd5b5082516337bf561360e11b8152fd5b601183634e487b7160e01b5f525260245ffd5b5082516348f5c3ed60e01b8152fd5b90508681813d83116106f5575b6106e68183610729565b810103126100be5751886105f0565b503d6106dc565b85513d5f823e3d90fd5b906101206003198301126100be576101006004359260231901126100be57602490565b90601f8019910116810190811067ffffffffffffffff82111761074b57604052565b634e487b7160e01b5f52604160045260245ffd5b63ffffffff8160e01c9160401c1681018091116107795790565b634e487b7160e01b5f52601160045260245ffd5b63ffffffff8160e01c911681018091116107795790565b600b60405161010090816044823720604051907f0000000000000000000000000000000000000000000000000000000000000000604083015260208201527f000000000000000000000000000000000000000000000000000000000000000081520160ff8153605590206001600160a01b0316300361081f57565b604051635134a42560e11b8152600490fd5b600b60405161010090816004823720604051907f0000000000000000000000000000000000000000000000000000000000000000604083015260208201527f000000000000000000000000000000000000000000000000000000000000000081520160ff8153605590206001600160a01b0316300361081f57565b600b906040516101008092823720604051907f0000000000000000000000000000000000000000000000000000000000000000604083015260208201527f000000000000000000000000000000000000000000000000000000000000000081520160ff8153605590206001600160a01b0316300361081f57565b9160446020925f926040519163a9059cbb60e01b83526004830152602482015282855af1908161096b575b501561095957565b60405163fb7f507960e01b8152600490fd5b90503d15610985575060015f5114601f3d11165b5f610951565b3b151561097f565b5f80809381935af13d156109e6573d67ffffffffffffffff811161074b57604051906109c3601f8201601f191660200183610729565b81525f60203d92013e5b156109d457565b604051638a0332d560e01b8152600490fd5b6109cd56fea2646970667358221220774872e5250697d1d744295ce5b4b3309a411e86c3d63e18a654d63671b9b5b964736f6c6343000817003360c03461013057601f610d1a38819003918201601f19168301916001600160401b03831184841017610134578084926060946040528339810103126101305780516001600160a01b03808216820361013057602083015192818416908185036101305760400151828116809103610130578015610118575f80546001600160a01b03198116831782556040519416907f8be0079c531659141344cd1fd0a4f28419497f9722a3daafe3b4186f6b6457e09080a315610109575060a052608052604051610bd1908161014982396080518181816102310152818161063a0152818161095c01526109ce015260a0518181816101fa015281816104c2015281816109130152610a650152f35b63d92e233d60e01b8152600490fd5b604051631e4fbdf760e01b81525f6004820152602490fd5b5f80fd5b634e487b7160e01b5f52604160045260245ffdfe604060808152600480361015610013575f80fd5b5f3560e01c8063205c2878146105c55780632e1a7d4d146105a55780632f4f21e21461057d57806332d323a5146105325780635886216f1461047e578063715018a61461042757806378e3214f1461032c5780638da5cb5b1461030557806397a2cb6414610194578063b6b55f2514610174578063bfe917341461012e5763f2fde38b1461009f575f80fd5b3461012a57602036600319011261012a576100b86105ed565b906100c1610b09565b6001600160a01b039182169283156101145750505f54826bffffffffffffffffffffffff60a01b8216175f55167f8be0079c531659141344cd1fd0a4f28419497f9722a3daafe3b4186f6b6457e05f80a3005b905f6024925191631e4fbdf760e01b8352820152fd5b5f80fd5b50903461012a578060031936011261012a5760243567ffffffffffffffff811161012a5760209261016561016d9236908301610603565b913533610631565b9051908152f35b50903461012a57602036600319011261012a5761016d60209235336109b6565b503461012a576020918260031936011261012a57813567ffffffffffffffff80821161012a573660238301121561012a578184013590811161012a5760059360243683871b850182011161012a5794906101ec610b09565b5f9586946001600160a01b037f00000000000000000000000000000000000000000000000000000000000000008116949091905b86881061025b578a8a8a61025582337f0000000000000000000000000000000000000000000000000000000000000000610b34565b51908152f35b9091929394959698848a831b840101359084821680920361012a575f8281526001808e52908b9020548b51635886216f60e01b8152808a0185905293918e858a818e5afa9283156102fb578f905f946102cb575b600196505f5252818c5f20550301990196959493929190610220565b935085813d83116102f4575b6102e181836108af565b8101031261012a578e60019551936102af565b503d6102d7565b8d513d5f823e3d90fd5b823461012a575f36600319011261012a575f5490516001600160a01b039091168152602090f35b50903461012a578060031936011261012a5781356001600160a01b0381169081810361012a576024359161035e610b09565b8261036557005b8015908115610409575b50156103f857508047106103ea575f8080809333611388f13d156103e5573d67ffffffffffffffff81116103d2578251906103b4601f8201601f1916602001836108af565b81525f60203d92013e5b156103c557005b5163b12d13eb60e01b8152fd5b604184634e487b7160e01b5f525260245ffd5b6103be565b5051631e9acf1760e31b8152fd5b90915061040792503390610b34565b005b73eeeeeeeeeeeeeeeeeeeeeeeeeeeeeeeeeeeeeeee9150145f61036f565b3461012a575f36600319011261012a5761043f610b09565b5f80546001600160a01b0319811682556001600160a01b03167f8be0079c531659141344cd1fd0a4f28419497f9722a3daafe3b4186f6b6457e08280a3005b503461012a576020918260031936011261012a578261049b6105ed565b8251635886216f60e01b81526001600160a01b0391821694810194909452839060249082907f0000000000000000000000000000000000000000000000000000000000000000165afa918215610528575f926104f9575b5051908152f35b9091508281813d8311610521575b61051181836108af565b8101031261012a5751905f6104f2565b503d610507565b50513d5f823e3d90fd5b50903461012a57606036600319011261012a5761054d6105ed565b916044359267ffffffffffffffff841161012a5761057361016d92602095369101610603565b9160243590610631565b823461012a578060031936011261012a5760209061016d61059c6105ed565b602435906109b6565b50903461012a57602036600319011261012a5761016d60209235336108e5565b823461012a578060031936011261012a5760209061016d6105e46105ed565b602435906108e5565b600435906001600160a01b038216820361012a57565b9181601f8401121561012a5782359167ffffffffffffffff831161012a576020838186019501011161012a57565b925f91929082917f00000000000000000000000000000000000000000000000000000000000000009160405191818060641461084a57806048146107d9578060e0146107b857806101001461079557806060146106f757610160146106c657639fd5a6cf60e01b8352849160049181908584013701925af15b156106bb576106b8916109b6565b90565b6040513d5f823e3d90fd5b6302b67b5760e41b8352610164935061016091506004830137826e22d473030f116ddee9f6b43ac78ba35af16106aa565b5060209150604090610164946302b67b5760e41b855233600486015260248501526014816050860137851965ffffffffffff9080601484013560e01c0182166064870152601883013560e01c60848701523060a4870152601c83013560e01c011660c485015261010060e4850152816101048501528280820161012486013701610144830137826e22d473030f116ddee9f6b43ac78ba35af16106aa565b506323f2ebc360e21b835261010493859250906101009060048501375af16106aa565b5063d505accf60e01b835260e4938592509060e09060048501375af16106aa565b5084915092610104936323f2ebc360e21b845233600485015230602485015260206008602883013592803560e01c60448801528519600482013560e01c016064880152600160848801528360ff1c601b0160a48801520160c48601376001600160ff1b031660e48401525af16106aa565b508491509260e49363d505accf60e01b8452336004850152306024850152602060246044830135928281604489013785198382013560e01c0160648801528360ff1c601b0160848801520160a48601376001600160ff1b031660c48401525af16106aa565b90601f8019910116810190811067ffffffffffffffff8211176108d157604052565b634e487b7160e01b5f52604160045260245ffd5b6040516342f6d16f60e11b8152336004820152602481018390529092916020826044815f6001600160a01b037f0000000000000000000000000000000000000000000000000000000000000000165af180156106bb575f90610982575b610980925093335f52600160205260405f208281540390557f0000000000000000000000000000000000000000000000000000000000000000610b34565b565b506020823d6020116109ae575b8161099c602093836108af565b8101031261012a576109809151610942565b3d915061098f565b6001600160a01b0391818316908115610af7576064937f00000000000000000000000000000000000000000000000000000000000000006040516323b872dd60e01b81523360048201523060248201528360448201525f602097889282855af19081610ad5575b5015610ac3575f92835260018552604080842080548401905551633ee5ef1f60e01b81526001600160a01b0394909416600485015260248401919091528391839160449183917f0000000000000000000000000000000000000000000000000000000000000000165af19182156106bb575f92610a9957505090565b90809250813d8311610abc575b610ab081836108af565b8101031261012a575190565b503d610aa6565b60405163f405907160e01b8152600490fd5b90503d15610aef575060015f5114601f3d11165b5f610a1d565b3b1515610ae9565b60405163d92e233d60e01b8152600490fd5b5f546001600160a01b03163303610b1c57565b60405163118cdaa760e01b8152336004820152602490fd5b9160446020925f926040519163a9059cbb60e01b83526004830152602482015282855af19081610b79575b5015610b6757565b60405163fb7f507960e01b8152600490fd5b90503d15610b93575060015f5114601f3d11165b5f610b5f565b3b1515610b8d56fea26469706673582212202247af8498b7aa86ff6e41028a8a9b7f91c0a0e581c5354949e67f56f1ab35ca64736f6c63430008170033","linkReferences":{}},"methodIdentifiers":{"ESCROW_DST_IMPLEMENTATION()":"ba551177","ESCROW_SRC_IMPLEMENTATION()":"7040f173","FEE_BANK()":"2ce26aeb","addressOfEscrowDst((bytes32,bytes32,uint256,uint256,uint256,uint256,uint256,uint256))":"be58e91c","addressOfEscrowSrc((bytes32,bytes32,uint256,uint256,uint256,uint256,uint256,uint256))":"fb6bd47e","availableCredit(address)":"5886216f","createDstEscrow((bytes32,bytes32,uint256,uint256,uint256,uint256,uint256,uint256),uint256)":"dea024e4","decreaseAvailableCredit(address,uint256)":"85eda2de","getMakingAmount((uint256,uint256,uint256,uint256,uint256,uint256,uint256,uint256),bytes,bytes32,address,uint256,uint256,bytes)":"1d9671c3","getTakingAmount((uint256,uint256,uint256,uint256,uint256,uint256,uint256,uint256),bytes,bytes32,address,uint256,uint256,bytes)":"d7ff8a80","increaseAvailableCredit(address,uint256)":"3ee5ef1f","lastValidated(bytes32)":"acf4ce5c","postInteraction((uint256,uint256,uint256,uint256,uint256,uint256,uint256,uint256),bytes,bytes32,address,uint256,uint256,uint256,bytes)":"462ebde2","preInteraction((uint256,uint256,uint256,uint256,uint256,uint256,uint256,uint256),bytes,bytes32,address,uint256,uint256,uint256,bytes)":"0986bdd5","takerInteraction((uint256,uint256,uint256,uint256,uint256,uint256,uint256,uint256),bytes,bytes32,address,uint256,uint256,uint256,bytes)":"adf38ba1"},"id":4}