{"abi":[{"type":"constructor","inputs":[{"name":"_weth","type":"address","internalType":"contract IWETH"}],"stateMutability":"nonpayable"},{"type":"receive","stateMutability":"payable"},{"type":"function","name":"DOMAIN_SEPARATOR","inputs":[],"outputs":[{"name":"","type":"bytes32","internalType":"bytes32"}],"stateMutability":"view"},{"type":"function","name":"advanceEpoch","inputs":[{"name":"series","type":"uint96","internalType":"uint96"},{"name":"amount","type":"uint256","internalType":"uint256"}],"outputs":[],"stateMutability":"nonpayable"},{"type":"function","name":"and","inputs":[{"name":"offsets","type":"uint256","internalType":"uint256"},{"name":"data","type":"bytes","internalType":"bytes"}],"outputs":[{"name":"","type":"bool","internalType":"bool"}],"stateMutability":"view"},{"type":"function","name":"arbitraryStaticCall","inputs":[{"name":"target","type":"address","internalType":"address"},{"name":"data","type":"bytes","internalType":"bytes"}],"outputs":[{"name":"","type":"uint256","internalType":"uint256"}],"stateMutability":"view"},{"type":"function","name":"bitInvalidatorForOrder","inputs":[{"name":"maker","type":"address","internalType":"address"},{"name":"slot","type":"uint256","internalType":"uint256"}],"outputs":[{"name":"","type":"uint256","internalType":"uint256"}],"stateMutability":"view"},{"type":"function","name":"bitsInvalidateForOrder","inputs":[{"name":"makerTraits","type":"uint256","internalType":"MakerTraits"},{"name":"additionalMask","type":"uint256","internalType":"uint256"}],"outputs":[],"stateMutability":"nonpayable"},{"type":"function","name":"cancelOrder","inputs":[{"name":"makerTraits","type":"uint256","internalType":"MakerTraits"},{"name":"orderHash","type":"bytes32","internalType":"bytes32"}],"outputs":[],"stateMutability":"nonpayable"},{"type":"function","name":"cancelOrders","inputs":[{"name":"makerTraits","type":"uint256[]","internalType":"MakerTraits[]"},{"name":"orderHashes","type":"bytes32[]","internalType":"bytes32[]"}],"outputs":[],"stateMutability":"nonpayable"},{"type":"function","name":"checkPredicate","inputs":[{"name":"predicate","type":"bytes","internalType":"bytes"}],"outputs":[{"name":"","type":"bool","internalType":"bool"}],"stateMutability":"view"},{"type":"function","name":"eip712Domain","inputs":[],"outputs":[{"name":"fields","type":"bytes1","internalType":"bytes1"},{"name":"name","type":"string","internalType":"string"},{"name":"version","type":"string","internalType":"string"},{"name":"chainId","type":"uint256","internalType":"uint256"},{"name":"verifyingContract","type":"address","internalType":"address"},{"name":"salt","type":"bytes32","internalType":"bytes32"},{"name":"extensions","type":"uint256[]","internalType":"uint256[]"}],"stateMutability":"view"},{"type":"function","name":"epoch","inputs":[{"name":"maker","type":"address","internalType":"address"},{"name":"series","type":"uint96","internalType":"uint96"}],"outputs":[{"name":"","type":"uint256","internalType":"uint256"}],"stateMutability":"view"},{"type":"function","name":"epochEquals","inputs":[{"name":"maker","type":"address","internalType":"address"},{"name":"series","type":"uint256","internalType":"uint256"},{"name":"makerEpoch","type":"uint256","internalType":"uint256"}],"outputs":[{"name":"","type":"bool","internalType":"bool"}],"stateMutability":"view"},{"type":"function","name":"eq","inputs":[{"name":"value","type":"uint256","internalType":"uint256"},{"name":"data","type":"bytes","internalType":"bytes"}],"outputs":[{"name":"","type":"bool","internalType":"bool"}],"stateMutability":"view"},{"type":"function","name":"fillContractOrder","inputs":[{"name":"order","type":"tuple","internalType":"struct IOrderMixin.Order","components":[{"name":"salt","type":"uint256","internalType":"uint256"},{"name":"maker","type":"uint256","internalType":"Address"},{"name":"receiver","type":"uint256","internalType":"Address"},{"name":"makerAsset","type":"uint256","internalType":"Address"},{"name":"takerAsset","type":"uint256","internalType":"Address"},{"name":"makingAmount","type":"uint256","internalType":"uint256"},{"name":"takingAmount","type":"uint256","internalType":"uint256"},{"name":"makerTraits","type":"uint256","internalType":"MakerTraits"}]},{"name":"signature","type":"bytes","internalType":"bytes"},{"name":"amount","type":"uint256","internalType":"uint256"},{"name":"takerTraits","type":"uint256","internalType":"TakerTraits"}],"outputs":[{"name":"","type":"uint256","internalType":"uint256"},{"name":"","type":"uint256","internalType":"uint256"},{"name":"","type":"bytes32","internalType":"bytes32"}],"stateMutability":"nonpayable"},{"type":"function","name":"fillContractOrderArgs","inputs":[{"name":"order","type":"tuple","internalType":"struct IOrderMixin.Order","components":[{"name":"salt","type":"uint256","internalType":"uint256"},{"name":"maker","type":"uint256","internalType":"Address"},{"name":"receiver","type":"uint256","internalType":"Address"},{"name":"makerAsset","type":"uint256","internalType":"Address"},{"name":"takerAsset","type":"uint256","internalType":"Address"},{"name":"makingAmount","type":"uint256","internalType":"uint256"},{"name":"takingAmount","type":"uint256","internalType":"uint256"},{"name":"makerTraits","type":"uint256","internalType":"MakerTraits"}]},{"name":"signature","type":"bytes","internalType":"bytes"},{"name":"amount","type":"uint256","internalType":"uint256"},{"name":"takerTraits","type":"uint256","internalType":"TakerTraits"},{"name":"args","type":"bytes","internalType":"bytes"}],"outputs":[{"name":"","type":"uint256","internalType":"uint256"},{"name":"","type":"uint256","internalType":"uint256"},{"name":"","type":"bytes32","internalType":"bytes32"}],"stateMutability":"nonpayable"},{"type":"function","name":"fillOrder","inputs":[{"name":"order","type":"tuple","internalType":"struct IOrderMixin.Order","components":[{"name":"salt","type":"uint256","internalType":"uint256"},{"name":"maker","type":"uint256","internalType":"Address"},{"name":"receiver","type":"uint256","internalType":"Address"},{"name":"makerAsset","type":"uint256","internalType":"Address"},{"name":"takerAsset","type":"uint256","internalType":"Address"},{"name":"makingAmount","type":"uint256","internalType":"uint256"},{"name":"takingAmount","type":"uint256","internalType":"uint256"},{"name":"makerTraits","type":"uint256","internalType":"MakerTraits"}]},{"name":"r","type":"bytes32","internalType":"bytes32"},{"name":"vs","type":"bytes32","internalType":"bytes32"},{"name":"amount","type":"uint256","internalType":"uint256"},{"name":"takerTraits","type":"uint256","internalType":"TakerTraits"}],"outputs":[{"name":"","type":"uint256","internalType":"uint256"},{"name":"","type":"uint256","internalType":"uint256"},{"name":"","type":"bytes32","internalType":"bytes32"}],"stateMutability":"payable"},{"type":"function","name":"fillOrderArgs","inputs":[{"name":"order","type":"tuple","internalType":"struct IOrderMixin.Order","components":[{"name":"salt","type":"uint256","internalType":"uint256"},{"name":"maker","type":"uint256","internalType":"Address"},{"name":"receiver","type":"uint256","internalType":"Address"},{"name":"makerAsset","type":"uint256","internalType":"Address"},{"name":"takerAsset","type":"uint256","internalType":"Address"},{"name":"makingAmount","type":"uint256","internalType":"uint256"},{"name":"takingAmount","type":"uint256","internalType":"uint256"},{"name":"makerTraits","type":"uint256","internalType":"MakerTraits"}]},{"name":"r","type":"bytes32","internalType":"bytes32"},{"name":"vs","type":"bytes32","internalType":"bytes32"},{"name":"amount","type":"uint256","internalType":"uint256"},{"name":"takerTraits","type":"uint256","internalType":"TakerTraits"},{"name":"args","type":"bytes","internalType":"bytes"}],"outputs":[{"name":"","type":"uint256","internalType":"uint256"},{"name":"","type":"uint256","internalType":"uint256"},{"name":"","type":"bytes32","internalType":"bytes32"}],"stateMutability":"payable"},{"type":"function","name":"gt","inputs":[{"name":"value","type":"uint256","internalType":"uint256"},{"name":"data","type":"bytes","internalType":"bytes"}],"outputs":[{"name":"","type":"bool","internalType":"bool"}],"stateMutability":"view"},{"type":"function","name":"hashOrder","inputs":[{"name":"order","type":"tuple","internalType":"struct IOrderMixin.Order","components":[{"name":"salt","type":"uint256","internalType":"uint256"},{"name":"maker","type":"uint256","internalType":"Address"},{"name":"receiver","type":"uint256","internalType":"Address"},{"name":"makerAsset","type":"uint256","internalType":"Address"},{"name":"takerAsset","type":"uint256","internalType":"Address"},{"name":"makingAmount","type":"uint256","internalType":"uint256"},{"name":"takingAmount","type":"uint256","internalType":"uint256"},{"name":"makerTraits","type":"uint256","internalType":"MakerTraits"}]}],"outputs":[{"name":"","type":"bytes32","internalType":"bytes32"}],"stateMutability":"view"},{"type":"function","name":"increaseEpoch","inputs":[{"name":"series","type":"uint96","internalType":"uint96"}],"outputs":[],"stateMutability":"nonpayable"},{"type":"function","name":"lt","inputs":[{"name":"value","type":"uint256","internalType":"uint256"},{"name":"data","type":"bytes","internalType":"bytes"}],"outputs":[{"name":"","type":"bool","internalType":"bool"}],"stateMutability":"view"},{"type":"function","name":"not","inputs":[{"name":"data","type":"bytes","internalType":"bytes"}],"outputs":[{"name":"","type":"bool","internalType":"bool"}],"stateMutability":"view"},{"type":"function","name":"or","inputs":[{"name":"offsets","type":"uint256","internalType":"uint256"},{"name":"data","type":"bytes","internalType":"bytes"}],"outputs":[{"name":"","type":"bool","internalType":"bool"}],"stateMutability":"view"},{"type":"function","name":"owner","inputs":[],"outputs":[{"name":"","type":"address","internalType":"address"}],"stateMutability":"view"},{"type":"function","name":"pause","inputs":[],"outputs":[],"stateMutability":"nonpayable"},{"type":"function","name":"paused","inputs":[],"outputs":[{"name":"","type":"bool","internalType":"bool"}],"stateMutability":"view"},{"type":"function","name":"permitAndCall","inputs":[{"name":"permit","type":"bytes","internalType":"bytes"},{"name":"action","type":"bytes","internalType":"bytes"}],"outputs":[],"stateMutability":"payable"},{"type":"function","name":"rawRemainingInvalidatorForOrder","inputs":[{"name":"maker","type":"address","internalType":"address"},{"name":"orderHash","type":"bytes32","internalType":"bytes32"}],"outputs":[{"name":"","type":"uint256","internalType":"uint256"}],"stateMutability":"view"},{"type":"function","name":"remainingInvalidatorForOrder","inputs":[{"name":"maker","type":"address","internalType":"address"},{"name":"orderHash","type":"bytes32","internalType":"bytes32"}],"outputs":[{"name":"","type":"uint256","internalType":"uint256"}],"stateMutability":"view"},{"type":"function","name":"renounceOwnership","inputs":[],"outputs":[],"stateMutability":"nonpayable"},{"type":"function","name":"simulate","inputs":[{"name":"target","type":"address","internalType":"address"},{"name":"data","type":"bytes","internalType":"bytes"}],"outputs":[],"stateMutability":"nonpayable"},{"type":"function","name":"transferOwnership","inputs":[{"name":"newOwner","type":"address","internalType":"address"}],"outputs":[],"stateMutability":"nonpayable"},{"type":"function","name":"unpause","inputs":[],"outputs":[],"stateMutability":"nonpayable"},{"type":"event","name":"BitInvalidatorUpdated","inputs":[{"name":"maker","type":"address","indexed":true,"internalType":"address"},{"name":"slotIndex","type":"uint256","indexed":false,"internalType":"uint256"},{"name":"slotValue","type":"uint256","indexed":false,"internalType":"uint256"}],"anonymous":false},{"type":"event","name":"EIP712DomainChanged","inputs":[],"anonymous":false},{"type":"event","name":"EpochIncreased","inputs":[{"name":"maker","type":"address","indexed":true,"internalType":"address"},{"name":"series","type":"uint256","indexed":false,"internalType":"uint256"},{"name":"newEpoch","type":"uint256","indexed":false,"internalType":"uint256"}],"anonymous":false},{"type":"event","name":"OrderCancelled","inputs":[{"name":"orderHash","type":"bytes32","indexed":false,"internalType":"bytes32"}],"anonymous":false},{"type":"event","name":"OrderFilled","inputs":[{"name":"orderHash","type":"bytes32","indexed":false,"internalType":"bytes32"},{"name":"remainingAmount","type":"uint256","indexed":false,"internalType":"uint256"}],"anonymous":false},{"type":"event","name":"OwnershipTransferred","inputs":[{"name":"previousOwner","type":"address","indexed":true,"internalType":"address"},{"name":"newOwner","type":"address","indexed":true,"internalType":"address"}],"anonymous":false},{"type":"event","name":"Paused","inputs":[{"name":"account","type":"address","indexed":false,"internalType":"address"}],"anonymous":false},{"type":"event","name":"Unpaused","inputs":[{"name":"account","type":"address","indexed":false,"internalType":"address"}],"anonymous":false},{"type":"error","name":"AdvanceEpochFailed","inputs":[]},{"type":"error","name":"ArbitraryStaticCallFailed","inputs":[]},{"type":"error","name":"BadSignature","inputs":[]},{"type":"error","name":"BitInvalidatedOrder","inputs":[]},{"type":"error","name":"ETHTransferFailed","inputs":[]},{"type":"error","name":"EnforcedPause","inputs":[]},{"type":"error","name":"EpochManagerAndBitInvalidatorsAreIncompatible","inputs":[]},{"type":"error","name":"EthDepositRejected","inputs":[]},{"type":"error","name":"ExpectedPause","inputs":[]},{"type":"error","name":"InvalidMsgValue","inputs":[]},{"type":"error","name":"InvalidPermit2Transfer","inputs":[]},{"type":"error","name":"InvalidShortString","inputs":[]},{"type":"error","name":"InvalidatedOrder","inputs":[]},{"type":"error","name":"MakingAmountTooLow","inputs":[]},{"type":"error","name":"MismatchArraysLengths","inputs":[]},{"type":"error","name":"OrderExpired","inputs":[]},{"type":"error","name":"OrderIsNotSuitableForMassInvalidation","inputs":[]},{"type":"error","name":"OwnableInvalidOwner","inputs":[{"name":"owner","type":"address","internalType":"address"}]},{"type":"error","name":"OwnableUnauthorizedAccount","inputs":[{"name":"account","type":"address","internalType":"address"}]},{"type":"error","name":"PartialFillNotAllowed","inputs":[]},{"type":"error","name":"Permit2TransferAmountTooHigh","inputs":[]},{"type":"error","name":"PredicateIsNotTrue","inputs":[]},{"type":"error","name":"PrivateOrder","inputs":[]},{"type":"error","name":"ReentrancyDetected","inputs":[]},{"type":"error","name":"RemainingInvalidatedOrder","inputs":[]},{"type":"error","name":"SafeTransferFailed","inputs":[]},{"type":"error","name":"SafeTransferFromFailed","inputs":[]},{"type":"error","name":"SimulationResults","inputs":[{"name":"success","type":"bool","internalType":"bool"},{"name":"res","type":"bytes","internalType":"bytes"}]},{"type":"error","name":"StringTooLong","inputs":[{"name":"str","type":"string","internalType":"string"}]},{"type":"error","name":"SwapWithZeroAmount","inputs":[]},{"type":"error","name":"TakingAmountExceeded","inputs":[]},{"type":"error","name":"TakingAmountTooHigh","inputs":[]},{"type":"error","name":"TransferFromMakerToTakerFailed","inputs":[]},{"type":"error","name":"TransferFromTakerToMakerFailed","inputs":[]},{"type":"error","name":"WrongSeriesNonce","inputs":[]}],"bytecode":{"object":"0x6101a03462000271576001600160401b0390601f6200433338819003918201601f19168301929190848411838510176200025d5781602092849260409687528339810103126200027157516001600160a01b03918282169081830362000271578051906200006d8262000275565b601a825260208201907f31696e6368204c696d6974204f726465722050726f746f636f6c0000000000008252805196620000a78862000275565b6001885260208801600d60fa1b8152620000c18562000291565b93610120948552620000d38a6200045b565b95610140968752519020988960e05251902061010098818a524660a05283519160208301917f8b73c3c69bb8fe3d512ecc4cf759cc79239f7b179b0ffacaa9a75d522b39400f83528584015260608301524660808301523060a083015260a0825260c0820192828410908411176200025d57828452815190206080523060c05233156200024757505060038054336001600160a01b0319821681179092559151969091167f8be0079c531659141344cd1fd0a4f28419497f9722a3daafe3b4186f6b6457e05f80a3610160928352610180938452613d30958662000603873960805186612ef0015260a05186612fbb015260c05186612eba015260e05186612f3f01525185612f6501525184611dba01525183611de301525182601c01525181818161040c0152818161049b01528181610696015281816106fc0152818161073e01528181610801015281816109300152818161109501528181611906015281816122e50152818161237401526124950152f35b631e4fbdf760e01b82525f60c490910152602490fd5b634e487b7160e01b5f52604160045260245ffd5b5f80fd5b604081019081106001600160401b038211176200025d57604052565b8051602090818110156200032b5750601f825111620002cc5780825192015190808310620002be57501790565b825f19910360031b1b161790565b90604051809263305a27a960e01b82528060048301528251908160248401525f935b82851062000311575050604492505f838284010152601f80199101168101030190fd5b8481018201518686016044015293810193859350620002ee565b906001600160401b0382116200025d575f54926001938481811c9116801562000450575b838210146200043c57601f811162000406575b5081601f8411600114620003a057509282939183925f9462000394575b50501b915f199060031b1c1916175f5560ff90565b015192505f806200037f565b919083601f1981165f8052845f20945f905b88838310620003eb5750505010620003d2575b505050811b015f5560ff90565b01515f1960f88460031b161c191690555f8080620003c5565b858701518855909601959485019487935090810190620003b2565b5f805284601f845f20920160051c820191601f860160051c015b8281106200043057505062000362565b5f815501859062000420565b634e487b7160e01b5f52602260045260245ffd5b90607f16906200034f565b805160209081811015620004e75750601f825111620004885780825192015190808310620002be57501790565b90604051809263305a27a960e01b82528060048301528251908160248401525f935b828510620004cd575050604492505f838284010152601f80199101168101030190fd5b8481018201518686016044015293810193859350620004aa565b9192916001600160401b0381116200025d5760019182548381811c91168015620005f7575b828210146200043c57601f8111620005c1575b5080601f83116001146200055d5750819293945f9262000551575b50505f19600383901b1c191690821b17905560ff90565b015190505f806200053a565b90601f19831695845f52825f20925f905b888210620005a9575050838596971062000590575b505050811b01905560ff90565b01515f1960f88460031b161c191690555f808062000583565b8087859682949686015181550195019301906200056e565b835f5283601f835f20920160051c820191601f850160051c015b828110620005eb5750506200051f565b5f8155018490620005db565b90607f16906200050c56fe608080604052600436101561005e575b50361561001a575f80fd5b7f00000000000000000000000000000000000000000000000000000000000000006001600160a01b0316330361004c57005b604051631b10b0f960e01b8152600490fd5b5f3560e01c90816305b1ea0314612a29575080630d2c7c1614612984578063143e86a71461293d57806315169dec146128ed5780633644e515146128cb5780633f4ba83a1461285a578063435b9789146127fc5780634f38e2b8146127cb57806356a75868146120f05780635816d7231461205b5780635c975abb146120365780636fe7b0ba14612005578063715018a614611faa5780637426114514611f91578063802b2ef114611f205780638456cb5914611ebf57806384b0196e14611da557806389e7c65014611d0b5780638da5cb5b14611ce35780639fda64bd14611798578063b68fb02014611777578063bd61951d1461171d578063bf15fcd8146116e3578063bf7979591461168d578063bfa7514314611674578063c2a4075314611630578063c3cf8043146115b6578063ca4ece221461157a578063cc713a0414610f03578063ce3d710a14610eb6578063f2fde38b14610e2f578063f497df75146102355763fcea9e4e146101d5575f61000f565b34610231576040366003190112610231576101ee612adc565b6024356001600160601b0381168103610231576001600160601b0360a01b9060a01b169060018060a01b0316175f526002602052602060405f2054604051908152f35b5f80fd5b36600319016101a0811261023157610100136102315761012435610184356001600160401b0381116102315761027261027c913690600401612af2565b906101643561300d565b939461028e610289612eb7565b61309f565b93610298856130f0565b925f9260a4358514610cec575b506102ae6134e5565b6102b88583613709565b9015610ce5575069ffffffffffffffffffff8060e435168015918215610cd9575b505015610cc75764ffffffffff8060e43560501c168015159081610cbd575b50610cab5760e435600160fa1b16610c3d575b5084610bec575b61016435600160ff1b1615610b33578361014435108461014435180284189661033e87868a89876138d9565b98610164356001600160b81b031680610adb575b505b60e435600160ff1b16151580610acf575b610abd5789890215610aab5761037c60e435612e73565b15610a81576024356001600160a01b03165f90815260046020908152604080832060e435608081901c63ffffffff168552928190529220549190600160789190911c60ff161b80831614610a6f5763ffffffff60e43560801c165f52602052600160ff60e43560781c161b1760405f20555b60e435600160fc1b166109b1575b6064356001600160a01b039081167f0000000000000000000000000000000000000000000000000000000000000000909116148061099f575b801561099957305b8a60e435600160f81b161561095a57506104578987613b45565b905061082a5761047a908b906001600160a01b03602435811690606435166139d8565b610929575b506013811161089b575b50506001600160a01b036084358116907f00000000000000000000000000000000000000000000000000000000000000001681148080610892575b156107ab57505086341061079957863411610770575b60e435600160f71b161561066457818080808a6104f5613aa7565b5af16104ff612de8565b50156106525785935b60e435600160fb1b16610577575b505050604061054a61057394937ffec331350fce78ba658e082a71da20ac9f8d798a99b3c79681c8440cbfe77e079361329c565b8151908482526020820152a1604051938493846040919493926060820195825260208201520152565b0390f35b90919293506105868183613ba6565b9091906024356001600160a01b0316818460138211610626575b50506001600160a01b031692833b1561062257858995936105e08296948b948b8f6040519b8c9a8b998a986323175ef160e11b8a52339260048b016131d9565b03925af180156106175790859392916105fa575b80610516565b8192935061060790612c9f565b61061457908184926105f4565b80fd5b6040513d84823e3d90fd5b8580fd5b8195508093506106369250612bff565b60601c9083601411610622576014019260131901908a806105a0565b60405163b12d13eb60e01b8152600490fd5b8661072c575b6020826044610677613aa7565b60405163a9059cbb60e01b81526004810191909152602481018b9052827f00000000000000000000000000000000000000000000000000000000000000006001600160a01b03165af1806106e4575b156106d2578593610508565b60405163fb7f507960e01b8152600490fd5b503d156106fa576001825114601f3d11166106c6565b7f00000000000000000000000000000000000000000000000000000000000000006001600160a01b03163b15156106c6565b630d0e30db60e41b825281806004818a7f00000000000000000000000000000000000000000000000000000000000000005af161066a5750604051903d90823e3d90fd5b818080808a3403335af1610782612de8565b506104da5760405163b12d13eb60e01b8152600490fd5b604051631841b4e160e01b8152600490fd5b949094346107995780610881575b801561087457305b61016435600160fc1b161561083c576107da8385613b76565b905061082a57896107ee918a9833906139d8565b15610508576108256107fe613aa7565b897f0000000000000000000000000000000000000000000000000000000000000000613a63565b610508565b6040516301577e8360e51b8152600490fd5b61085691968a61084c8587613b76565b9390923390613985565b156108625786946107ee565b60405163478a520560e01b8152600490fd5b61087c613aa7565b6107c1565b5060e435600160f71b1615156107b9565b503415156104c4565b6108a58183612bff565b60601c918160141161092557823b1561092557839260148680946108f08c958f8f8e918e916040519c8d9b8c9a8b9963adf38ba160e01b8b5260131901970195339260048b016131d9565b03925af1801561091a57908391156104895761090b90612c9f565b610916578188610489565b5080fd5b6040513d85823e3d90fd5b8480fd5b61095490897f0000000000000000000000000000000000000000000000000000000000000000613a63565b8961047f565b610982916109688b89613b45565b9290916001600160a01b0360243581169060643516613985565b61047a575b604051630e1407e960e31b8152600490fd5b8161043d565b5061016435600160fe1b161515610435565b6109bb8785613b12565b6001600160a01b036024358116828460138211610a43575b50508181163b15610231578b5f8f938f96610a0f8f91978f9885998f996040519c8d9b8c9a8b98630986bdd560e01b8a52339260048b016131d9565b0393165af18015610a3857610a25575b506103fc565b610a30919550612c9f565b5f938a610a1f565b6040513d5f823e3d90fd5b819550809450610a539250612bff565b60601c9183601411610231576014019260131901918e806109d3565b60405163527b154b60e11b8152600490fd5b60018060a01b03602435165f52600560205260405f20885f526020528886031960405f20556103ee565b604051637dd2d13b60e11b8152600490fd5b6040516323bc005f60e21b8152600490fd5b5060a435891415610365565b610144358a03610b04578a11610af2575b8a610352565b60405163fb8ae12960e01b8152600490fd5b610b1b8a610b15610144358e613153565b92613153565b1015610aec5760405163fb8ae12960e01b8152600490fd5b610144359796610b4687868b8987613823565b97858911610bba575b610164356001600160b81b031680610b68575b50610354565b610144358b03610b91578910610b7f575b8a610b62565b60405163240f51c960e11b8152600490fd5b610ba28b610b15610144358d613153565b1115610b795760405163240f51c960e11b8152600490fd5b985096508396610bcd87868089876138d9565b98610144358a1115610b4f575b604051637f902a9360e01b8152600490fd5b610bf68583613ac8565b80610c03575b5050610312565b610c0d9130612e93565b81610c32575b5015610c20578880610bfc565b604051635b314e0160e11b8152600490fd5b600191501489610c13565b610c4860e435612e73565b610c995760e43560a081811c8316901b6024356001600160a01b0316175f9081526002602052604090205460789190911c90911603610c87578861030b565b6040516371f4582960e11b8152600490fd5b604051639e744e2560e01b8152600490fd5b6040516362b439dd60e11b8152600490fd5b905042118a6102f8565b604051636a6fed7f60e11b8152600490fd5b331614905089806102d9565b5f5260045ffd5b6001600160a01b03602435811691821591908215610dbc575b5050610daa5761016435600160fd1b166102a557610d238684613bd7565b906014821015610d35575b50506102a5565b610d3f8282612bff565b60601c82601411610231576014610d5f93601319019201908430916132a9565b50610d6b60e435612e73565b15610d78575b8080610d2e565b5f52600560205260405f20865f5260205260405f2054610d985788610d71565b60405163c5f2be5160e01b8152600490fd5b604051635cd5d23360e01b8152600490fd5b9091505f906001600160ff1b0381166fa2a8918ca85bafe22016d0b997e4df5f600160ff1b038110610df6575b5050168114158a80610d05565b602092505f91608091604051918d835260ff1c601b0185830152610104356040830152606082015282805260015afa505f518b80610de9565b3461023157602036600319011261023157610e48612adc565b610e50612fe1565b6001600160a01b03908116908115610e9e57600354826001600160601b0360a01b821617600355167f8be0079c531659141344cd1fd0a4f28419497f9722a3daafe3b4186f6b6457e05f80a3005b604051631e4fbdf760e01b81525f6004820152602490fd5b34610231576060366003190112610231576020610ef9610ed4612adc565b6001600160a01b031660243560a01b175f908152600260205260409020546044351490565b6040519015158152f35b346102315736600319016101608112610231576101001361023157610104356001600160401b03811161023157610f3e903690600401612af2565b6101243591905f61014435610f54610289612eb7565b91610f5e836130f0565b9360a43595868614611518575b5050610f756134e5565b610f7d6137a3565b9015610ce5575060e4359169ffffffffffffffffffff808416801591821561150c575b505015610cc75764ffffffffff808460501c168015159081611502575b50610cab57600160fa1b84166114be575b50600160ff1b95818716156114315785881086891802861896610ff48860c43584613cb5565b986001600160b81b03841690816113f4575b50505b8416151590816113e9575b50610abd5786860215610aab5761102a83612e73565b156113bf5760018060a01b03602435165f52600460205260405f2063ffffffff8460801c16600160ff8660781c161b91815f528060205260405f2054918380841614610a6f575f526020521760405f20555b600160fc1b9183831661135d575b6001600160a01b03927f000000000000000000000000000000000000000000000000000000000000000080851693909260643586168581148061134e575b801561134857305b600160f81b8a161561131e576110e68480613b45565b905061082a578c6110fe9185948b60243516906139d8565b61130e575b61061457509089899392866084351686811493848095611307575b15611280575050509250505061079957600160f71b83161561122057505f80808089611148613aa7565b5af1611152612de8565b50156106525784915b600160fb1b16611197575b50604061054a7ffec331350fce78ba658e082a71da20ac9f8d798a99b3c79681c8440cbfe77e07926105739561329c565b90506024351691823b15610231575f60405180946323175ef160e11b82528183816111c9878c8c338c60048701613241565b03925af1908115610a385761054a85604092610573967ffec331350fce78ba658e082a71da20ac9f8d798a99b3c79681c8440cbfe77e0795611211575b509550925050611166565b61121a90612c9f565b89611206565b60205f604461122d613aa7565b6040519063a9059cbb60e01b825260048201528a602482015282855af1908161125e575b50156106d257849161115b565b90503d15611278575060015f5114601f3d11165b87611251565b3b1515611272565b90919293809596999750946112f7575b84156112e95730925b16156112d057906112ac929133906139d8565b6112b7575b5061115b565b6112ca90886112c4613aa7565b91613a63565b876112b1565b6112dd939750339061394b565b156108625786936112ac565b6112f1613aa7565b92611299565b600160f71b871615159450611290565b505f61111e565b611319338c87613a63565b611103565b61133c91928d61132e8680613b45565b9390928c6024351690613985565b156109875781906110fe565b336110d0565b50600160fe1b831615156110c8565b6024356001600160a01b0316803b15610231575f8988928a838a61139960405197889687958694630986bdd560e01b8652339060048701613241565b03925af18015610a38576113ae575b5061108a565b6113b89150612c9f565b5f886113a8565b60018060a01b03602435165f52600560205260405f20845f526020528585031960405f205561107c565b905086141588611014565b8981810361140c5750508911610af2575b8980611006565b610b15611419928d613153565b10156114055760405163fb8ae12960e01b8152600490fd5b60c4359688611441818a85613c8e565b98888a116114a0575b506001600160b81b0384169081611463575b5050611009565b8a81810361147b5750508810610b7f575b898061145c565b610b15611488928c613153565b11156114745760405163240f51c960e11b8152600490fd5b985098506114b087809984613cb5565b98808a11610bda578a61144a565b6114c784612e73565b610c995760a084811c8216901b6024356001600160a01b0316175f90815260026020526040902054607885901c90911603610c875787610fce565b9050421189610fbd565b33161490508880610fa0565b60205f80936040519080630b135d3f60e11b958684528a6004850152604060248501528160448501526064840137606401906024356001600160a01b03165afa61156a575b5015610daa578680610f6b565b5f51143d6020141690508761155d565b3461023157602061159761158d36612b1f565b9092919230612e93565b819291926115ac575b50506040519015158152f35b10905082806115a0565b34610231576020366003190112610231576115cf612ac6565b6001600160601b0360a01b8160a01b1633175f52600260205260405f2060018154018091556001600160601b036040519216825260208201527f099133aefc2c2d1e56f8ef3622ec8e80979a0713fc9c4e1497740efcf809939660403392a2005b34610231576040366003190112610231576001600160a01b03611651612adc565b165f52600560205260405f206024355f52602052602060405f2054604051908152f35b34610231576020610ef961168736612b1f565b91612e17565b34610231576020366003190112610231576004356001600160401b038111610231576116c96116c26020923690600401612af2565b9030612e93565b816116da575b506040519015158152f35b905015826116cf565b34610231576116fa6116f436612bc0565b91612e93565b901561170b57602090604051908152f35b604051631f1b8f6160e01b8152600490fd5b34610231575f8061172d36612bc0565b90816040519283928337810184815203915af4611748612de8565b6040805163032695f960e31b8152921515600484015260248301528190611773906044830190612b52565b0390fd5b3461023157604036600319011261023157611796602435600435612d12565b005b3660031901610180811261023157610100136102315761014435610124355f610164356117c6610289612eb7565b906117d0826130f0565b9260a43594858514611c48575b506117e66134e5565b6117ee6137a3565b9015610ce5575060e4359169ffffffffffffffffffff8084168015918215611c3c575b505015610cc75764ffffffffff808460501c168015159081611c32575b50610cab57600160fa1b8416611bee575b50600160ff1b9581871615611b6157858810868918028618966118658860c43584613cb5565b986001600160b81b0384169081611b24575b50505b841615159081611b19575b50610abd5786860215610aab5761189b83612e73565b15611aef5760018060a01b03602435165f52600460205260405f2063ffffffff8460801c16600160ff8660781c161b91815f528060205260405f2054918380841614610a6f575f526020521760405f20555b600160fc1b91838316611a8d575b6001600160a01b03927f0000000000000000000000000000000000000000000000000000000000000000808516939092606435861685811480611a7e575b8015611a7857305b600160f81b8a1615611a5c576119578480613b45565b905061082a578c61196f9185948b60243516906139d8565b611a4c575b6106145750608435851691848314918280611a43575b15611a1457505050508734106107995787908134116119f4575b600160f71b8516156119c057505f808093508092611148613aa7565b816119d5575b505060205f604461122d613aa7565b60045f80938193630d0e30db60e41b83525af115610a385786886119c6565b905f808080933403335af1611a07612de8565b50156106525787906119a4565b909192969450346107995789968b92846112f75784156112e957309216156112d057906112ac929133906139d8565b5034151561198a565b611a57338c87613a63565b611974565b611a6c91928d61132e8680613b45565b1561098757819061196f565b33611941565b50600160fe1b83161515611939565b6024356001600160a01b0316803b15610231575f8988928a838a611ac960405197889687958694630986bdd560e01b8652339060048701613241565b03925af18015610a3857611ade575b506118fb565b611ae89150612c9f565b5f88611ad8565b60018060a01b03602435165f52600560205260405f20845f526020528585031960405f20556118ed565b905086141588611885565b89818103611b3c5750508911610af2575b8980611877565b610b15611b49928d613153565b1015611b355760405163fb8ae12960e01b8152600490fd5b60c4359688611b71818a85613c8e565b98888a11611bd0575b506001600160b81b0384169081611b93575b505061187a565b8a818103611bab5750508810610b7f575b8980611b8c565b610b15611bb8928c613153565b1115611ba45760405163240f51c960e11b8152600490fd5b98509850611be087809984613cb5565b98808a11610bda578a611b7a565b611bf784612e73565b610c995760a084811c8216901b6024356001600160a01b0316175f90815260026020526040902054607885901c90911603610c87578761183f565b905042118961182e565b33161490508880611811565b6001600160a01b0360243581168015929091908315611c6f575b505050610daa57866117dd565b919250905f906001600160ff1b0381166fa2a8918ca85bafe22016d0b997e4df5f600160ff1b038110611caa575b5050161415878080611c62565b602092505f91608091604051918a835260ff1c601b0185830152610104356040830152606082015282805260015afa505f518980611c9d565b34610231575f366003190112610231576003546040516001600160a01b039091168152602090f35b34610231576040366003190112610231576001600160401b0360043581811161023157611d3c903690600401612b90565b909160243590811161023157611d56903690600401612b90565b90818303611d93575f5b838110611d6957005b80611d8d611d7a6001938789612cee565b35611d86838787612cee565b3590612d12565b01611d60565b604051631b2f9b3b60e31b8152600490fd5b34610231575f36600319011261023157611dde7f0000000000000000000000000000000000000000000000000000000000000000613506565b611e077f0000000000000000000000000000000000000000000000000000000000000000613627565b6040516020808201928284106001600160401b03851117611eab57916020611e608594611e5297966040525f8452604051978897600f60f81b895260e0858a015260e0890190612b52565b908782036040890152612b52565b914660608701523060808701525f60a087015285830360c087015251918281520192915f5b828110611e9457505050500390f35b835185528695509381019392810192600101611e85565b634e487b7160e01b5f52604160045260245ffd5b34610231575f36600319011261023157611ed7612fe1565b611edf6134e5565b6003805460ff60a01b1916600160a01b1790556040513381527f62e78cea01bee320cd4e420270b5ea74000d11b0c9f74754ebdbfc544b05a25890602090a1005b346102315761010080600319360112610231576042602091610120611f43612eb7565b91604051907f3af21ec5a20011b88d3b7b4ed7c806cef05a5980cf34974bcd53566a131f7e4c8252600486830137206040519161190160f01b83526002830152602282015220604051908152f35b34610231576020610ef9611fa436612b1f565b91612c48565b34610231575f36600319011261023157611fc2612fe1565b600380546001600160a01b031981169091555f906001600160a01b03167f8be0079c531659141344cd1fd0a4f28419497f9722a3daafe3b4186f6b6457e08280a3005b3461023157602061201861158d36612b1f565b8192919261202c5750506040519015158152f35b14905082806115a0565b34610231575f36600319011261023157602060ff60035460a01c166040519015158152f35b6040366003190112610231576001600160401b0360043581811161023157612087903690600401612af2565b91602435908111610231576120a0903690600401612af2565b6120ad8484959395612bff565b60601c9180601411610231575f9384936120d392601319019160140190309033906132a9565b508060405194853783305af43d5f833e156120ec573d90f35b3d90fd5b3461023157366003190161018081126102315761010013610231576001600160401b03610104358181116102315761212c903690600401612af2565b9091610164359081116102315761214a612154913690600401612af2565b906101443561300d565b94919261216661028997929597612eb7565b94612170866130f0565b935f9360a4358614612769575b50506121876134e5565b6121918583613709565b9015610ce5575069ffffffffffffffffffff8060e43516801591821561275d575b505015610cc75764ffffffffff8060e43560501c168015159081612753575b50610cab5760e435600160fa1b16612709575b50846126ca575b61014435600160ff1b1615612624578361012435108461012435180284189661221787868a89876138d9565b98610144356001600160b81b0316806125e4575b505b60e435600160ff1b161515806125d8575b610abd5789890215610aab5761225560e435612e73565b156125ae576024356001600160a01b03165f90815260046020908152604080832060e435608081901c63ffffffff168552928190529220549190600160789190911c60ff161b80831614610a6f5763ffffffff60e43560801c165f52602052600160ff60e43560781c161b1760405f20555b60e435600160fc1b166124fb575b6064356001600160a01b039081167f000000000000000000000000000000000000000000000000000000000000000090911614806124e9575b80156124e357305b8a60e435600160f81b16156124bf57506123308987613b45565b905061082a57612353908b906001600160a01b03602435811690606435166139d8565b61248e575b5060138111612413575b50506001600160a01b036084358116907f0000000000000000000000000000000000000000000000000000000000000000168114808061240c575b156123c4575050866107995760e435600160f71b161561066a57818080808a6104f5613aa7565b909490806123fb575b80156123ee57305b61014435600160fc1b161561083c576107da8385613b76565b6123f6613aa7565b6123d5565b5060e435600160f71b1615156123cd565b505f61239d565b61241d8183612bff565b60601c918160141161092557823b1561092557839260148680946124688c958f8f8e918e916040519c8d9b8c9a8b9963adf38ba160e01b8b5260131901970195339260048b016131d9565b03925af1801561091a57908391156123625761248390612c9f565b610916578188612362565b6124b990897f0000000000000000000000000000000000000000000000000000000000000000613a63565b89612358565b6124cd916109688b89613b45565b61235357604051630e1407e960e31b8152600490fd5b81612316565b5061014435600160fe1b16151561230e565b6125058785613b12565b6001600160a01b036024358116828460138211612582575b50508181163b15610231578b5f8f938f966125598f91978f9885998f996040519c8d9b8c9a8b98630986bdd560e01b8a52339260048b016131d9565b0393165af18015610a385761256f575b506122d5565b61257a919550612c9f565b5f938a612569565b8195508094506125929250612bff565b60601c9183601411610231576014019260131901918e8061251d565b60018060a01b03602435165f52600560205260405f20885f526020528886031960405f20556122c7565b5060a43589141561223e565b610124358a036125fb578a11610af2575b8a61222b565b61260c8a610b15610124358e613153565b10156125f55760405163fb8ae12960e01b8152600490fd5b61012435979661263787868b8987613823565b97858911612699575b610144356001600160b81b031680612659575b5061222d565b610124358b03612670578910610b7f575b8a612653565b6126818b610b15610124358d613153565b111561266a5760405163240f51c960e11b8152600490fd5b9850965083966126ac87868089876138d9565b98610124358a111561264057604051637f902a9360e01b8152600490fd5b6126d48583613ac8565b806126e1575b50506121eb565b6126eb9130612e93565b816126fe575b5015610c205788806126da565b6001915014896126f1565b61271460e435612e73565b610c995760e43560a081811c8316901b6024356001600160a01b0316175f9081526002602052604090205460789190911c90911603610c8757886121e4565b905042118a6121d1565b331614905089806121b2565b60205f80936040519080630b135d3f60e11b958684528d6004850152604060248501528160448501526064840137606401906024356001600160a01b03165afa6127bb575b5015610daa57888061217d565b5f51143d602014169050896127ae565b346102315760206127de61158d36612b1f565b819291926127f25750506040519015158152f35b11905082806115a0565b34610231576040366003190112610231576001600160a01b0361281d612adc565b165f52600560205260405f206024355f5260205260405f205480156128485760209060405190198152f35b60405163aa3eef9560e01b8152600490fd5b34610231575f36600319011261023157612872612fe1565b60035460ff8160a01c16156128b95760ff60a01b19166003556040513381527f5db9ee0a495bf2e6ff9c91a7834c1ba4fdd244a5e8aa4e537bd38aeae4b073aa90602090a1005b604051638dfc202b60e01b8152600490fd5b34610231575f3660031901126102315760206128e5612eb7565b604051908152f35b34610231576020366003190112610231576004356001600160401b038111610231576129226116c26020923690600401612af2565b8161293257506040519015158152f35b6001915014826116cf565b34610231576040366003190112610231576001600160a01b0361295e612adc565b165f52600460205260405f2060243560081c5f52602052602060405f2054604051908152f35b346102315760403660031901126102315761299d612ac6565b60243580158015612a1f575b612a0d576001600160601b0360a01b8260a01b1633175f52600260205260405f20908154018091556001600160601b036040519216825260208201527f099133aefc2c2d1e56f8ef3622ec8e80979a0713fc9c4e1497740efcf809939660403392a2005b60405163555fbbbf60e01b8152600490fd5b5060ff81116129a9565b346102315760403660031901126102315760043590612a4782612e73565b15612ab75750335f52600460205260405f209063ffffffff8160801c1691825f5260205260405f2090600160ff6024359260781c161b1781541780915560405191825260208201527fcda0f7e73d07bdb14b141f2cf4745926629a1b63e7c6a3dd8a80232cb459a85060403392a2005b63435ffd6560e11b8152600490fd5b600435906001600160601b038216820361023157565b600435906001600160a01b038216820361023157565b9181601f84011215610231578235916001600160401b038311610231576020838186019501011161023157565b9060406003198301126102315760043591602435906001600160401b03821161023157612b4e91600401612af2565b9091565b91908251928382525f5b848110612b7c575050825f602080949584010152601f8019910116010190565b602081830181015184830182015201612b5c565b9181601f84011215610231578235916001600160401b038311610231576020808501948460051b01011161023157565b906040600319830112610231576004356001600160a01b03811681036102315791602435906001600160401b03821161023157612b4e91600401612af2565b6bffffffffffffffffffffffff199035818116939260148110612c2157505050565b60140360031b82901b16169150565b90939293848311610231578411610231578101920390565b929091925f5b63ffffffff8216908115612c95576116c282612c6b928888612c30565b81612c8a575b50612c80579060201c90612c4e565b5050915050600190565b60019150145f612c71565b5050509150505f90565b6001600160401b038111611eab57604052565b604081019081106001600160401b03821117611eab57604052565b90601f801991011681019081106001600160401b03821117611eab57604052565b9190811015612cfe5760051b0190565b634e487b7160e01b5f52603260045260245ffd5b90612d1c82612e73565b15612d875750335f52600460205260405f209063ffffffff8160801c1691825f52602052600160ff60405f209260781c161b81541780915560405191825260208201527fcda0f7e73d07bdb14b141f2cf4745926629a1b63e7c6a3dd8a80232cb459a85060403392a2565b7f5152abf959f6564662358c2e52b702259b78bac5ee7842a0f01937e670efcc7d9150602090335f526005825260405f20815f5282525f1960405f2055604051908152a1565b6001600160401b038111611eab57601f01601f191660200190565b3d15612e12573d90612df982612dcd565b91612e076040519384612ccd565b82523d5f602084013e565b606090565b929091925f5b63ffffffff8216908115612e68576116c282612e3a928888612c30565b9015908115612e5c575b50612e53579060201c90612e1d565b50509150505f90565b6001915014155f612e44565b505050915050600190565b600160ff1b81161580159190612e87575090565b600160fe1b1615919050565b915f906020928294826040519283375afa60203d14169182612eb157565b5f519150565b307f00000000000000000000000000000000000000000000000000000000000000006001600160a01b03161480612fb8575b15612f12577f000000000000000000000000000000000000000000000000000000000000000090565b60405160208101907f8b73c3c69bb8fe3d512ecc4cf759cc79239f7b179b0ffacaa9a75d522b39400f82527f000000000000000000000000000000000000000000000000000000000000000060408201527f000000000000000000000000000000000000000000000000000000000000000060608201524660808201523060a082015260a0815260c081018181106001600160401b03821117611eab5760405251902090565b507f00000000000000000000000000000000000000000000000000000000000000004614612ee9565b6003546001600160a01b03163303612ff557565b60405163118cdaa760e01b8152336004820152602490fd5b90929190600160fb1b811615613096576130278285612bff565b60601c9382601411610231576014019160131901925b62ffffff60e083901c81169485156130885780861161023157613064908596818197612c30565b919091935b60c81c1692831561307e578311610231579190565b505090505f905f90565b92939094505f945f94613069565b3393919261303d565b6042906101206040517f3af21ec5a20011b88d3b7b4ed7c806cef05a5980cf34974bcd53566a131f7e4c815261010060046020830137206040519161190160f01b8352600283015260228201522090565b6130fb60e435612e73565b15613120575060a435905b811561310e57565b604051637b8fded160e11b8152600490fd5b60018060a01b03602435165f52600560205260405f20905f5260205261314d60405f205460a435906136f8565b90613106565b8181029291811591840414171561316657565b634e487b7160e01b5f52601160045260245ffd5b6004358152602435602082015260443560408201526064356060820152608435608082015260a43560a082015260c43560c082015260e060e435910152565b908060209392818452848401375f828201840152601f01601f1916010190565b949161323e9997949161320591999794996101e06131f68961317a565b806101008a01528801916131b9565b6101208601989098526001600160a01b03166101408501526101608401526101808301526101a08201528084036101c0909101526131b9565b90565b935f93610220969293856101e06132578961317a565b806101008a01528801526102009461012088015260018060a01b03166101408701526101608601526101808501526101a0840152806101c0840152820152015f815290565b9190820391821161316657565b9190935f94938594604051938391826064146134835782604814613415578260e0146133f45782610100146133d157826060146133355750506101601461330657639fd5a6cf60e01b8352849160049181908584013701925af190565b6302b67b5760e41b8352610164935061016091506004830137826e22d473030f116ddee9f6b43ac78ba35af190565b60209450604093925095610164966302b67b5760e41b8752600487015260248601526014826050870137861965ffffffffffff9181601485013560e01c0183166064880152601884013560e01c608488015260a4870152601c83013560e01c011660c485015261010060e4850152816101048501528280820161012486013701610144830137826e22d473030f116ddee9f6b43ac78ba35af190565b50506323f2ebc360e21b84525061010493859250906101009060048501375af190565b505063d505accf60e01b84525060e4938592509060e09060048501375af190565b879450610104969392506323f2ebc360e21b86526004860152602485015260206008602883013592803560e01c60448801528519600482013560e01c016064880152600160848801528360ff1c601b0160a48801520160c48601376001600160ff1b031660e48401525af190565b87945060e49693925063d505accf60e01b865260048601526024850152602060246044830135928281604489013785198382013560e01c0160648801528360ff1c601b0160848801520160a48601376001600160ff1b031660c48401525af190565b60ff60035460a01c166134f457565b60405163d93c066560e01b8152600490fd5b60ff81146135445760ff811690601f8211613532576040519161352883612cb2565b8252602082015290565b604051632cd44ac360e21b8152600490fd5b506040515f8054906001908260011c6001841692831561361d575b60209485831085146136095782875286949081156135e9575060011461358e575b505061323e92500382612ccd565b5f8080527f290decd9548b62a8d60345a988386fc84ba6bc95484008f6362f93160ef3e56395935091905b8183106135d157505061323e93508201015f80613580565b855487840185015294850194869450918301916135b9565b91505061323e94925060ff191682840152151560051b8201015f80613580565b634e487b7160e01b5f52602260045260245ffd5b90607f169061355f565b60ff81146136495760ff811690601f8211613532576040519161352883612cb2565b506040515f60018054918260011c600184169283156136ee575b60209485831085146136095782875286949081156135e9575060011461369157505061323e92500382612ccd565b9093915060015f527fb10e2d527612073b26eecdfd717e6a320cf44b4afac2b0732d9fcbe2b7fa0cf6935f915b8183106136d657505061323e93508201015f80613580565b855487840185015294850194869450918301916136be565b90607f1690613663565b90811561370457501990565b905090565b9060e435600160f91b161561378f5780156137805761372781612dcd565b906137356040519283612ccd565b8082526020820192368282011161023157815f926020928637830101525190206001600160a01b0390811660043590911603613773575b6001905f90565b5f9063dc11ee6b60e01b90565b505f9163b2d25e4960e01b9150565b90501561376c575f906374896a7b60e01b90565b5f60e435600160f91b16156137be579063b2d25e4960e01b90565b506001905f90565b93906137f09061323e9997949896936101c06137e18861317a565b806101008901528701916131b9565b6101208501979097526001600160a01b03166101408401526101608301526101808201528084036101a0909101526131b9565b939190926138318486613c0a565b909281156138c3576138438285612bff565b60601c93826014116102315760209660149461387f936040519a8b998a988998631d9671c360e01b8a5260131901960194339260048a016137c6565b03915afa908115610a38575f91613894575090565b90506020813d6020116138bb575b816138af60209383612ccd565b81010312610231575190565b3d91506138a2565b94505050505061323e915060c43560a435613c8e565b939190926138e78486613c3d565b90928115613935576138f98285612bff565b60601c93826014116102315760209660149461387f936040519a8b998a9889986301afff1560e71b8a5260131901960194339260048a016137c6565b94505050505061323e915060c43560a435613cb5565b905f6064926020958295604051946323b872dd60e01b86526004860152602485015260448401525af160015f5114601f3d11163d15171690565b9294805f9581602098889596604051976323b872dd60e01b89526004890152602488015260448701526139cc575b5050606401925af160015f5114601f3d11163d15171690565b6064850137805f6139b3565b909290916001600160a01b038211613a515760405193631b63c28b60e11b855260048501526024840152604483015260648201525f8060846e22d473030f116ddee9f6b43ac78ba39382855af19081613a46575b5015613a3457565b60405163f405907160e01b8152600490fd5b90503b15155f613a2c565b604051638112e11960e01b8152600490fd5b5f602481808094969596632e1a7d4d60e01b8252876004525af115610a3857306001600160a01b03821603613a96575050565b5f8080938193611388f115610a3857565b6001600160a01b036044358116908115613abf575090565b90506024351690565b91909160208310613b0a5780359063ffffffff808360601c169260801c1693601f19018411613afb578101602001920390565b6309605a0160e41b5f5260045ffd5b505f91508190565b91909160208310613b0a5780359063ffffffff808360a01c169260c01c1693601f19018411613afb578101602001920390565b91909160208310613b0a5780359063ffffffff918060201b8316921693601f19018411613afb578101602001920390565b91909160208310613b0a5780359063ffffffff8083169260201c1693601f19018411613afb578101602001920390565b91909160208310613b0a5780359063ffffffff8260c01c169160e01c93601f19018411613afb578101602001920390565b91909160208310613b0a5780359063ffffffff808360801c169260a01c1693601f19018411613afb578101602001920390565b91909160208310613b0a5780359063ffffffff808360201c169260401c1693601f19018411613afb578101602001920390565b91909160208310613b0a5780359063ffffffff808360401c169260601c1693601f19018411613afb578101602001920390565b8115613c7a570490565b634e487b7160e01b5f52601260045260245ffd5b80831760801c15613cab57613ca69061323e93613153565b613c70565b61323e9202613c70565b9181811760801c15613cea5790613ccb91613153565b90808201809211613166575f1982019182116131665761323e91613c70565b61323e92910281015f1901613c7056fea2646970667358221220b725ab557748b33b3d1260926b23700eecc48f1244857cb3fcc44bd44200a08f64736f6c63430008170033","linkReferences":{}},"methodIdentifiers":{"DOMAIN_SEPARATOR()":"3644e515","advanceEpoch(uint96,uint256)":"0d2c7c16","and(uint256,bytes)":"bfa75143","arbitraryStaticCall(address,bytes)":"bf15fcd8","bitInvalidatorForOrder(address,uint256)":"143e86a7","bitsInvalidateForOrder(uint256,uint256)":"05b1ea03","cancelOrder(uint256,bytes32)":"b68fb020","cancelOrders(uint256[],bytes32[])":"89e7c650","checkPredicate(bytes)":"15169dec","eip712Domain()":"84b0196e","epoch(address,uint96)":"fcea9e4e","epochEquals(address,uint256,uint256)":"ce3d710a","eq(uint256,bytes)":"6fe7b0ba","fillContractOrder((uint256,uint256,uint256,uint256,uint256,uint256,uint256,uint256),bytes,uint256,uint256)":"cc713a04","fillContractOrderArgs((uint256,uint256,uint256,uint256,uint256,uint256,uint256,uint256),bytes,uint256,uint256,bytes)":"56a75868","fillOrder((uint256,uint256,uint256,uint256,uint256,uint256,uint256,uint256),bytes32,bytes32,uint256,uint256)":"9fda64bd","fillOrderArgs((uint256,uint256,uint256,uint256,uint256,uint256,uint256,uint256),bytes32,bytes32,uint256,uint256,bytes)":"f497df75","gt(uint256,bytes)":"4f38e2b8","hashOrder((uint256,uint256,uint256,uint256,uint256,uint256,uint256,uint256))":"802b2ef1","increaseEpoch(uint96)":"c3cf8043","lt(uint256,bytes)":"ca4ece22","not(bytes)":"bf797959","or(uint256,bytes)":"74261145","owner()":"8da5cb5b","pause()":"8456cb59","paused()":"5c975abb","permitAndCall(bytes,bytes)":"5816d723","rawRemainingInvalidatorForOrder(address,bytes32)":"c2a40753","remainingInvalidatorForOrder(address,bytes32)":"435b9789","renounceOwnership()":"715018a6","simulate(address,bytes)":"bd61951d","transferOwnership(address)":"f2fde38b","unpause()":"3f4ba83a"},"id":17}